{
  "contractName": "DecentraVote",
  "abi": [
    {
      "inputs": [],
      "stateMutability": "nonpayable",
      "type": "constructor"
    },
    {
      "inputs": [
        {
          "internalType": "address",
          "name": "_address",
          "type": "address"
        }
      ],
      "name": "checkProjectListing",
      "outputs": [
        {
          "internalType": "bool",
          "name": "",
          "type": "bool"
        }
      ],
      "stateMutability": "view",
      "type": "function"
    },
    {
      "inputs": [
        {
          "internalType": "address",
          "name": "_registeredAddress",
          "type": "address"
        },
        {
          "internalType": "address",
          "name": "_projectAddress",
          "type": "address"
        }
      ],
      "name": "claimProject",
      "outputs": [],
      "stateMutability": "nonpayable",
      "type": "function"
    },
    {
      "inputs": [
        {
          "internalType": "address",
          "name": "_address",
          "type": "address"
        },
        {
          "internalType": "bytes32",
          "name": "_title",
          "type": "bytes32"
        },
        {
          "internalType": "string",
          "name": "_description",
          "type": "string"
        },
        {
          "internalType": "bytes32[]",
          "name": "_options",
          "type": "bytes32[]"
        },
        {
          "internalType": "address",
          "name": "_projectAddress",
          "type": "address"
        }
      ],
      "name": "createPoll",
      "outputs": [],
      "stateMutability": "payable",
      "type": "function"
    },
    {
      "inputs": [
        {
          "internalType": "address",
          "name": "_address",
          "type": "address"
        }
      ],
      "name": "getProjectPolls",
      "outputs": [
        {
          "components": [
            {
              "internalType": "bytes32",
              "name": "title",
              "type": "bytes32"
            },
            {
              "internalType": "string",
              "name": "description",
              "type": "string"
            },
            {
              "internalType": "bytes32[]",
              "name": "options",
              "type": "bytes32[]"
            }
          ],
          "internalType": "struct DecentraVoteListing.Poll[]",
          "name": "",
          "type": "tuple[]"
        }
      ],
      "stateMutability": "view",
      "type": "function"
    },
    {
      "inputs": [
        {
          "internalType": "address",
          "name": "_address",
          "type": "address"
        }
      ],
      "name": "isClaimed",
      "outputs": [
        {
          "internalType": "bool",
          "name": "",
          "type": "bool"
        }
      ],
      "stateMutability": "view",
      "type": "function"
    },
    {
      "inputs": [
        {
          "internalType": "address",
          "name": "_registeredAddress",
          "type": "address"
        },
        {
          "internalType": "address",
          "name": "_projectAddress",
          "type": "address"
        }
      ],
      "name": "listAndClaimProject",
      "outputs": [],
      "stateMutability": "nonpayable",
      "type": "function"
    },
    {
      "inputs": [
        {
          "internalType": "address",
          "name": "_projectAddress",
          "type": "address"
        }
      ],
      "name": "listProject",
      "outputs": [],
      "stateMutability": "nonpayable",
      "type": "function"
    },
    {
      "inputs": [
        {
          "internalType": "address",
          "name": "",
          "type": "address"
        }
      ],
      "name": "projects",
      "outputs": [
        {
          "internalType": "address",
          "name": "walletAddress",
          "type": "address"
        },
        {
          "internalType": "bool",
          "name": "listed",
          "type": "bool"
        }
      ],
      "stateMutability": "view",
      "type": "function"
    },
    {
      "inputs": [
        {
          "internalType": "address",
          "name": "",
          "type": "address"
        }
      ],
      "name": "rates",
      "outputs": [
        {
          "internalType": "uint256",
          "name": "",
          "type": "uint256"
        }
      ],
      "stateMutability": "view",
      "type": "function"
    },
    {
      "inputs": [],
      "name": "usdCharge",
      "outputs": [
        {
          "internalType": "uint256",
          "name": "",
          "type": "uint256"
        }
      ],
      "stateMutability": "view",
      "type": "function"
    },
    {
      "inputs": [
        {
          "internalType": "address",
          "name": "_address",
          "type": "address"
        },
        {
          "internalType": "uint256",
          "name": "_value",
          "type": "uint256"
        }
      ],
      "name": "setTokenRates",
      "outputs": [],
      "stateMutability": "nonpayable",
      "type": "function"
    },
    {
      "inputs": [
        {
          "internalType": "uint256",
          "name": "_value",
          "type": "uint256"
        }
      ],
      "name": "setUsdCharge",
      "outputs": [],
      "stateMutability": "nonpayable",
      "type": "function"
    },
    {
      "inputs": [
        {
          "internalType": "address",
          "name": "_address",
          "type": "address"
        }
      ],
      "name": "setWbnb",
      "outputs": [],
      "stateMutability": "nonpayable",
      "type": "function"
    }
  ],
  "bytecode": "0x6080604052600560035534801561001557600080fd5b5033600560006101000a81548173ffffffffffffffffffffffffffffffffffffffff021916908373ffffffffffffffffffffffffffffffffffffffff1602179055506122b6806100666000396000f3fe6080604052600436106100c25760003560e01c80634fa756871161007f578063a8734f0b11610059578063a8734f0b14610268578063c5e3c565146102a5578063d0ea2e48146102e2578063ed145dfa1461030d576100c2565b80634fa75687146101c4578063840e78fd146101ed5780638cc080251461022b576100c2565b8063134f94e5146100c7578063164e7393146100f05780631b8015911461012d57806330d4872d14610149578063348c5ded1461017257806338bf69221461019b575b600080fd5b3480156100d357600080fd5b506100ee60048036038101906100e9919061126c565b610336565b005b3480156100fc57600080fd5b506101176004803603810190610112919061126c565b61040a565b60405161012491906112b4565b60405180910390f35b61014760048036038101906101429190611513565b610462565b005b34801561015557600080fd5b50610170600480360381019061016b91906115c6565b6106b2565b005b34801561017e57600080fd5b506101996004803603810190610194919061163c565b610901565b005b3480156101a757600080fd5b506101c260048036038101906101bd91906115c6565b6109d9565b005b3480156101d057600080fd5b506101eb60048036038101906101e6919061126c565b610c1f565b005b3480156101f957600080fd5b50610214600480360381019061020f919061126c565b610dc4565b60405161022292919061168b565b60405180910390f35b34801561023757600080fd5b50610252600480360381019061024d919061126c565b610e15565b60405161025f91906112b4565b60405180910390f35b34801561027457600080fd5b5061028f600480360381019061028a919061126c565b610eb5565b60405161029c91906116c3565b60405180910390f35b3480156102b157600080fd5b506102cc60048036038101906102c7919061126c565b610ecd565b6040516102d99190611934565b60405180910390f35b3480156102ee57600080fd5b506102f7611061565b60405161030491906116c3565b60405180910390f35b34801561031957600080fd5b50610334600480360381019061032f9190611956565b611067565b005b600560009054906101000a900473ffffffffffffffffffffffffffffffffffffffff1673ffffffffffffffffffffffffffffffffffffffff163373ffffffffffffffffffffffffffffffffffffffff16146103c6576040517f08c379a00000000000000000000000000000000000000000000000000000000081526004016103bd90611a06565b60405180910390fd5b80600460006101000a81548173ffffffffffffffffffffffffffffffffffffffff021916908373ffffffffffffffffffffffffffffffffffffffff16021790555050565b60008060008373ffffffffffffffffffffffffffffffffffffffff1673ffffffffffffffffffffffffffffffffffffffff16815260200190815260200160002060000160149054906101000a900460ff169050919050565b8473ffffffffffffffffffffffffffffffffffffffff166323b872dd33306104c8600260008b73ffffffffffffffffffffffffffffffffffffffff1673ffffffffffffffffffffffffffffffffffffffff16815260200190815260200160002054611101565b6040518463ffffffff1660e01b81526004016104e693929190611a26565b6020604051808303816000875af1158015610505573d6000803e3d6000fd5b505050506040513d601f19601f820116820180604052508101906105299190611a89565b8061059d575061059960026000600460009054906101000a900473ffffffffffffffffffffffffffffffffffffffff1673ffffffffffffffffffffffffffffffffffffffff1673ffffffffffffffffffffffffffffffffffffffff16815260200190815260200160002054611101565b3410155b6105dc576040517f08c379a00000000000000000000000000000000000000000000000000000000081526004016105d390611b28565b60405180910390fd5b6105e461116c565b828160400181905250838160200181905250848160000181815250506000808373ffffffffffffffffffffffffffffffffffffffff1673ffffffffffffffffffffffffffffffffffffffff16815260200190815260200160002060010181908060018154018082558091505060019003906000526020600020906003020160009091909190915060008201518160000155602082015181600101908161068a9190611d54565b5060408201518160020190805190602001906106a7929190611190565b505050505050505050565b808073ffffffffffffffffffffffffffffffffffffffff16638da5cb5b6040518163ffffffff1660e01b8152600401602060405180830381865afa1580156106fe573d6000803e3d6000fd5b505050506040513d601f19601f820116820180604052508101906107229190611e3b565b73ffffffffffffffffffffffffffffffffffffffff163373ffffffffffffffffffffffffffffffffffffffff161461078f576040517f08c379a000000000000000000000000000000000000000000000000000000000815260040161078690611eda565b60405180910390fd5b600160008473ffffffffffffffffffffffffffffffffffffffff1673ffffffffffffffffffffffffffffffffffffffff16815260200190815260200160002060009054906101000a900460ff161561081c576040517f08c379a000000000000000000000000000000000000000000000000000000000815260040161081390611f6c565b60405180910390fd5b60018060008573ffffffffffffffffffffffffffffffffffffffff1673ffffffffffffffffffffffffffffffffffffffff16815260200190815260200160002060006101000a81548160ff02191690831515021790555061087c82610c1f565b826000808473ffffffffffffffffffffffffffffffffffffffff1673ffffffffffffffffffffffffffffffffffffffff16815260200190815260200160002060000160006101000a81548173ffffffffffffffffffffffffffffffffffffffff021916908373ffffffffffffffffffffffffffffffffffffffff160217905550505050565b600560009054906101000a900473ffffffffffffffffffffffffffffffffffffffff1673ffffffffffffffffffffffffffffffffffffffff163373ffffffffffffffffffffffffffffffffffffffff1614610991576040517f08c379a000000000000000000000000000000000000000000000000000000000815260040161098890611a06565b60405180910390fd5b80600260008473ffffffffffffffffffffffffffffffffffffffff1673ffffffffffffffffffffffffffffffffffffffff168152602001908152602001600020819055505050565b808073ffffffffffffffffffffffffffffffffffffffff16638da5cb5b6040518163ffffffff1660e01b8152600401602060405180830381865afa158015610a25573d6000803e3d6000fd5b505050506040513d601f19601f82011682018060405250810190610a499190611e3b565b73ffffffffffffffffffffffffffffffffffffffff163373ffffffffffffffffffffffffffffffffffffffff1614610ab6576040517f08c379a0000000000000000000000000000000000000000000000000000000008152600401610aad90611eda565b60405180910390fd5b600160008473ffffffffffffffffffffffffffffffffffffffff1673ffffffffffffffffffffffffffffffffffffffff16815260200190815260200160002060009054906101000a900460ff1615610b43576040517f08c379a0000000000000000000000000000000000000000000000000000000008152600401610b3a90611f6c565b60405180910390fd5b826000808473ffffffffffffffffffffffffffffffffffffffff1673ffffffffffffffffffffffffffffffffffffffff16815260200190815260200160002060000160006101000a81548173ffffffffffffffffffffffffffffffffffffffff021916908373ffffffffffffffffffffffffffffffffffffffff16021790555060018060008573ffffffffffffffffffffffffffffffffffffffff1673ffffffffffffffffffffffffffffffffffffffff16815260200190815260200160002060006101000a81548160ff021916908315150217905550505050565b806000808273ffffffffffffffffffffffffffffffffffffffff1673ffffffffffffffffffffffffffffffffffffffff16815260200190815260200160002060000160149054906101000a900460ff1615610caf576040517f08c379a0000000000000000000000000000000000000000000000000000000008152600401610ca690611ffe565b60405180910390fd5b60008173ffffffffffffffffffffffffffffffffffffffff166306fdde036040518163ffffffff1660e01b8152600401600060405180830381865afa158015610cfc573d6000803e3d6000fd5b505050506040513d6000823e3d601f19601f82011682018060405250810190610d25919061208e565b5103610d66576040517f08c379a0000000000000000000000000000000000000000000000000000000008152600401610d5d90612123565b60405180910390fd5b60016000808473ffffffffffffffffffffffffffffffffffffffff1673ffffffffffffffffffffffffffffffffffffffff16815260200190815260200160002060000160146101000a81548160ff0219169083151502179055505050565b60006020528060005260406000206000915090508060000160009054906101000a900473ffffffffffffffffffffffffffffffffffffffff16908060000160149054906101000a900460ff16905082565b600080600073ffffffffffffffffffffffffffffffffffffffff166000808573ffffffffffffffffffffffffffffffffffffffff1673ffffffffffffffffffffffffffffffffffffffff16815260200190815260200160002060000160009054906101000a900473ffffffffffffffffffffffffffffffffffffffff1673ffffffffffffffffffffffffffffffffffffffff161415905080915050919050565b60026020528060005260406000206000915090505481565b60606000808373ffffffffffffffffffffffffffffffffffffffff1673ffffffffffffffffffffffffffffffffffffffff168152602001908152602001600020600101805480602002602001604051908101604052809291908181526020016000905b82821015611056578382906000526020600020906003020160405180606001604052908160008201548152602001600182018054610f6d90611b77565b80601f0160208091040260200160405190810160405280929190818152602001828054610f9990611b77565b8015610fe65780601f10610fbb57610100808354040283529160200191610fe6565b820191906000526020600020905b815481529060010190602001808311610fc957829003601f168201915b505050505081526020016002820180548060200260200160405190810160405280929190818152602001828054801561103e57602002820191906000526020600020905b81548152602001906001019080831161102a575b50505050508152505081526020019060010190610f30565b505050509050919050565b60035481565b600560009054906101000a900473ffffffffffffffffffffffffffffffffffffffff1673ffffffffffffffffffffffffffffffffffffffff163373ffffffffffffffffffffffffffffffffffffffff16146110f7576040517f08c379a00000000000000000000000000000000000000000000000000000000081526004016110ee90611a06565b60405180910390fd5b8060038190555050565b6000808211611145576040517f08c379a000000000000000000000000000000000000000000000000000000000815260040161113c9061218f565b60405180910390fd5b6000600354836001611157919061220d565b611161919061223e565b905080915050919050565b60405180606001604052806000801916815260200160608152602001606081525090565b8280548282559060005260206000209081019282156111cc579160200282015b828111156111cb5782518255916020019190600101906111b0565b5b5090506111d991906111dd565b5090565b5b808211156111f65760008160009055506001016111de565b5090565b6000604051905090565b600080fd5b600080fd5b600073ffffffffffffffffffffffffffffffffffffffff82169050919050565b60006112398261120e565b9050919050565b6112498161122e565b811461125457600080fd5b50565b60008135905061126681611240565b92915050565b60006020828403121561128257611281611204565b5b600061129084828501611257565b91505092915050565b60008115159050919050565b6112ae81611299565b82525050565b60006020820190506112c960008301846112a5565b92915050565b6000819050919050565b6112e2816112cf565b81146112ed57600080fd5b50565b6000813590506112ff816112d9565b92915050565b600080fd5b600080fd5b6000601f19601f8301169050919050565b7f4e487b7100000000000000000000000000000000000000000000000000000000600052604160045260246000fd5b6113588261130f565b810181811067ffffffffffffffff8211171561137757611376611320565b5b80604052505050565b600061138a6111fa565b9050611396828261134f565b919050565b600067ffffffffffffffff8211156113b6576113b5611320565b5b6113bf8261130f565b9050602081019050919050565b82818337600083830152505050565b60006113ee6113e98461139b565b611380565b90508281526020810184848401111561140a5761140961130a565b5b6114158482856113cc565b509392505050565b600082601f83011261143257611431611305565b5b81356114428482602086016113db565b91505092915050565b600067ffffffffffffffff82111561146657611465611320565b5b602082029050602081019050919050565b600080fd5b600061148f61148a8461144b565b611380565b905080838252602082019050602084028301858111156114b2576114b1611477565b5b835b818110156114db57806114c788826112f0565b8452602084019350506020810190506114b4565b5050509392505050565b600082601f8301126114fa576114f9611305565b5b813561150a84826020860161147c565b91505092915050565b600080600080600060a0868803121561152f5761152e611204565b5b600061153d88828901611257565b955050602061154e888289016112f0565b945050604086013567ffffffffffffffff81111561156f5761156e611209565b5b61157b8882890161141d565b935050606086013567ffffffffffffffff81111561159c5761159b611209565b5b6115a8888289016114e5565b92505060806115b988828901611257565b9150509295509295909350565b600080604083850312156115dd576115dc611204565b5b60006115eb85828601611257565b92505060206115fc85828601611257565b9150509250929050565b6000819050919050565b61161981611606565b811461162457600080fd5b50565b60008135905061163681611610565b92915050565b6000806040838503121561165357611652611204565b5b600061166185828601611257565b925050602061167285828601611627565b9150509250929050565b6116858161122e565b82525050565b60006040820190506116a0600083018561167c565b6116ad60208301846112a5565b9392505050565b6116bd81611606565b82525050565b60006020820190506116d860008301846116b4565b92915050565b600081519050919050565b600082825260208201905092915050565b6000819050602082019050919050565b611713816112cf565b82525050565b600081519050919050565b600082825260208201905092915050565b60005b83811015611753578082015181840152602081019050611738565b60008484015250505050565b600061176a82611719565b6117748185611724565b9350611784818560208601611735565b61178d8161130f565b840191505092915050565b600081519050919050565b600082825260208201905092915050565b6000819050602082019050919050565b60006117d0838361170a565b60208301905092915050565b6000602082019050919050565b60006117f482611798565b6117fe81856117a3565b9350611809836117b4565b8060005b8381101561183a57815161182188826117c4565b975061182c836117dc565b92505060018101905061180d565b5085935050505092915050565b600060608301600083015161185f600086018261170a565b5060208301518482036020860152611877828261175f565b9150506040830151848203604086015261189182826117e9565b9150508091505092915050565b60006118aa8383611847565b905092915050565b6000602082019050919050565b60006118ca826116de565b6118d481856116e9565b9350836020820285016118e6856116fa565b8060005b858110156119225784840389528151611903858261189e565b945061190e836118b2565b925060208a019950506001810190506118ea565b50829750879550505050505092915050565b6000602082019050818103600083015261194e81846118bf565b905092915050565b60006020828403121561196c5761196b611204565b5b600061197a84828501611627565b91505092915050565b600082825260208201905092915050565b7f796f7520617265206e6f74207065726d697474656420746f2063616c6c20746860008201527f69732066756e6374696f6e210000000000000000000000000000000000000000602082015250565b60006119f0602c83611983565b91506119fb82611994565b604082019050919050565b60006020820190508181036000830152611a1f816119e3565b9050919050565b6000606082019050611a3b600083018661167c565b611a48602083018561167c565b611a5560408301846116b4565b949350505050565b611a6681611299565b8114611a7157600080fd5b50565b600081519050611a8381611a5d565b92915050565b600060208284031215611a9f57611a9e611204565b5b6000611aad84828501611a74565b91505092915050565b7f50726f766964652066656573206265666f7265206372656174696e6720706f6c60008201527f6c73000000000000000000000000000000000000000000000000000000000000602082015250565b6000611b12602283611983565b9150611b1d82611ab6565b604082019050919050565b60006020820190508181036000830152611b4181611b05565b9050919050565b7f4e487b7100000000000000000000000000000000000000000000000000000000600052602260045260246000fd5b60006002820490506001821680611b8f57607f821691505b602082108103611ba257611ba1611b48565b5b50919050565b60008190508160005260206000209050919050565b60006020601f8301049050919050565b600082821b905092915050565b600060088302611c0a7fffffffffffffffffffffffffffffffffffffffffffffffffffffffffffffffff82611bcd565b611c148683611bcd565b95508019841693508086168417925050509392505050565b6000819050919050565b6000611c51611c4c611c4784611606565b611c2c565b611606565b9050919050565b6000819050919050565b611c6b83611c36565b611c7f611c7782611c58565b848454611bda565b825550505050565b600090565b611c94611c87565b611c9f818484611c62565b505050565b5b81811015611cc357611cb8600082611c8c565b600181019050611ca5565b5050565b601f821115611d0857611cd981611ba8565b611ce284611bbd565b81016020851015611cf1578190505b611d05611cfd85611bbd565b830182611ca4565b50505b505050565b600082821c905092915050565b6000611d2b60001984600802611d0d565b1980831691505092915050565b6000611d448383611d1a565b9150826002028217905092915050565b611d5d82611719565b67ffffffffffffffff811115611d7657611d75611320565b5b611d808254611b77565b611d8b828285611cc7565b600060209050601f831160018114611dbe5760008415611dac578287015190505b611db68582611d38565b865550611e1e565b601f198416611dcc86611ba8565b60005b82811015611df457848901518255600182019150602085019450602081019050611dcf565b86831015611e115784890151611e0d601f891682611d1a565b8355505b6001600288020188555050505b505050505050565b600081519050611e3581611240565b92915050565b600060208284031215611e5157611e50611204565b5b6000611e5f84828501611e26565b91505092915050565b7f636f6e7472616374206164647265737320646f6573206e6f742062656c6f6e6760008201527f20746f2074686973206164647265737300000000000000000000000000000000602082015250565b6000611ec4603083611983565b9150611ecf82611e68565b604082019050919050565b60006020820190508181036000830152611ef381611eb7565b9050919050565b7f5468697320616464726573732068617320616c7265616479206265656e206c6960008201527f6e6b656420746f20612070726f6a656374000000000000000000000000000000602082015250565b6000611f56603183611983565b9150611f6182611efa565b604082019050919050565b60006020820190508181036000830152611f8581611f49565b9050919050565b7f546869732070726f6a6563742068617320616c7265616479206265656e206c6960008201527f7374656400000000000000000000000000000000000000000000000000000000602082015250565b6000611fe8602483611983565b9150611ff382611f8c565b604082019050919050565b6000602082019050818103600083015261201781611fdb565b9050919050565b600061203161202c8461139b565b611380565b90508281526020810184848401111561204d5761204c61130a565b5b612058848285611735565b509392505050565b600082601f83011261207557612074611305565b5b815161208584826020860161201e565b91505092915050565b6000602082840312156120a4576120a3611204565b5b600082015167ffffffffffffffff8111156120c2576120c1611209565b5b6120ce84828501612060565b91505092915050565b7f436f6e747261637420646f6573206e6f7420686176652061206e616d65000000600082015250565b600061210d601d83611983565b9150612118826120d7565b602082019050919050565b6000602082019050818103600083015261213c81612100565b9050919050565b7f54686520726174652063616e6e6f74206265206c657373207468616e20300000600082015250565b6000612179601e83611983565b915061218482612143565b602082019050919050565b600060208201905081810360008301526121a88161216c565b9050919050565b7f4e487b7100000000000000000000000000000000000000000000000000000000600052601260045260246000fd5b7f4e487b7100000000000000000000000000000000000000000000000000000000600052601160045260246000fd5b600061221882611606565b915061222383611606565b925082612233576122326121af565b5b828204905092915050565b600061224982611606565b915061225483611606565b925082820261226281611606565b91508282048414831517612279576122786121de565b5b509291505056fea2646970667358221220abbfa89018786b4b2aab60c4277357f3ed599f33e815ec191202a91e5ea778b064736f6c63430008130033",
  "immutableReferences": {},
  "source": "// SPDX-License-Identifier: MIT\n\npragma solidity ^0.8;\n\nimport \"./Poll.sol\";\n\ncontract DecentraVote is Polls {\n    constructor() {\n        owner = msg.sender;\n    }\n\n    address owner;\n    modifier isOwner() {\n        require(\n            msg.sender == owner,\n            \"you are not permitted to call this function!\"\n        );\n        _;\n    }\n\n    function setTokenRates(address _address, uint256 _value) public isOwner {\n        rates[_address] = _value;\n    }\n\n    function setUsdCharge(uint256 _value) public isOwner {\n        usdCharge = _value;\n    }\n\n    function setWbnb(address _address) public isOwner {\n        wBnb = _address;\n    }\n}\n\ncontract Test {\n    constructor() {\n        owner = msg.sender;\n    }\n\n    string public name = \"radiance\";\n    address public owner;\n}\n",
  "sourcePath": "/Users/user/Documents/Projects/ddhub/decentravote-sc/contracts/Decentravote.sol",
  "compiler": {
    "name": "solc",
    "version": "0.8.19+commit.7dd6d404.Emscripten.clang"
  },
  "schemaVersion": "3.4.13",
  "updatedAt": "2023-04-26T11:51:44.732Z",
  "devdoc": {
    "kind": "dev",
    "methods": {},
    "version": 1
  },
  "userdoc": {
    "kind": "user",
    "methods": {},
    "version": 1
  }
}