{
  "contractName": "DecentraVote",
  "abi": [
    {
      "inputs": [],
      "stateMutability": "nonpayable",
      "type": "constructor"
    },
    {
      "inputs": [
        {
          "internalType": "address",
          "name": "_address",
          "type": "address"
        }
      ],
      "name": "checkProjectListing",
      "outputs": [
        {
          "internalType": "bool",
          "name": "",
          "type": "bool"
        }
      ],
      "stateMutability": "view",
      "type": "function",
      "constant": true
    },
    {
      "inputs": [
        {
          "internalType": "address",
          "name": "_registeredAddress",
          "type": "address"
        },
        {
          "internalType": "address",
          "name": "_projectAddress",
          "type": "address"
        }
      ],
      "name": "claimProject",
      "outputs": [],
      "stateMutability": "nonpayable",
      "type": "function"
    },
    {
      "inputs": [
        {
          "internalType": "address",
          "name": "_address",
          "type": "address"
        },
        {
          "internalType": "bytes32",
          "name": "_title",
          "type": "bytes32"
        },
        {
          "internalType": "string",
          "name": "_description",
          "type": "string"
        },
        {
          "internalType": "bytes32[]",
          "name": "_options",
          "type": "bytes32[]"
        },
        {
          "internalType": "address",
          "name": "_projectAddress",
          "type": "address"
        }
      ],
      "name": "createPoll",
      "outputs": [],
      "stateMutability": "payable",
      "type": "function",
      "payable": true
    },
    {
      "inputs": [
        {
          "internalType": "address",
          "name": "_address",
          "type": "address"
        }
      ],
      "name": "getProjectPolls",
      "outputs": [
        {
          "components": [
            {
              "internalType": "bytes32",
              "name": "title",
              "type": "bytes32"
            },
            {
              "internalType": "string",
              "name": "description",
              "type": "string"
            },
            {
              "internalType": "bytes32[]",
              "name": "options",
              "type": "bytes32[]"
            }
          ],
          "internalType": "struct Storage.Poll[]",
          "name": "",
          "type": "tuple[]"
        }
      ],
      "stateMutability": "view",
      "type": "function",
      "constant": true
    },
    {
      "inputs": [
        {
          "internalType": "address",
          "name": "_address",
          "type": "address"
        }
      ],
      "name": "isClaimed",
      "outputs": [
        {
          "internalType": "bool",
          "name": "",
          "type": "bool"
        }
      ],
      "stateMutability": "view",
      "type": "function",
      "constant": true
    },
    {
      "inputs": [
        {
          "internalType": "address",
          "name": "_registeredAddress",
          "type": "address"
        },
        {
          "internalType": "address",
          "name": "_projectAddress",
          "type": "address"
        }
      ],
      "name": "listAndClaimProject",
      "outputs": [],
      "stateMutability": "nonpayable",
      "type": "function"
    },
    {
      "inputs": [
        {
          "internalType": "address",
          "name": "_projectAddress",
          "type": "address"
        }
      ],
      "name": "listProject",
      "outputs": [],
      "stateMutability": "nonpayable",
      "type": "function"
    },
    {
      "inputs": [
        {
          "internalType": "address",
          "name": "",
          "type": "address"
        }
      ],
      "name": "projects",
      "outputs": [
        {
          "internalType": "address",
          "name": "walletAddress",
          "type": "address"
        },
        {
          "internalType": "bool",
          "name": "listed",
          "type": "bool"
        }
      ],
      "stateMutability": "view",
      "type": "function",
      "constant": true
    },
    {
      "inputs": [
        {
          "internalType": "address",
          "name": "",
          "type": "address"
        }
      ],
      "name": "rates",
      "outputs": [
        {
          "internalType": "uint256",
          "name": "",
          "type": "uint256"
        }
      ],
      "stateMutability": "view",
      "type": "function",
      "constant": true
    },
    {
      "inputs": [],
      "name": "usdCharge",
      "outputs": [
        {
          "internalType": "uint256",
          "name": "",
          "type": "uint256"
        }
      ],
      "stateMutability": "view",
      "type": "function",
      "constant": true
    },
    {
      "inputs": [
        {
          "internalType": "address",
          "name": "_address",
          "type": "address"
        },
        {
          "internalType": "uint256",
          "name": "_value",
          "type": "uint256"
        }
      ],
      "name": "setTokenRates",
      "outputs": [],
      "stateMutability": "nonpayable",
      "type": "function"
    },
    {
      "inputs": [
        {
          "internalType": "uint256",
          "name": "_value",
          "type": "uint256"
        }
      ],
      "name": "setUsdCharge",
      "outputs": [],
      "stateMutability": "nonpayable",
      "type": "function"
    },
    {
      "inputs": [
        {
          "internalType": "address",
          "name": "_address",
          "type": "address"
        }
      ],
      "name": "setWbnb",
      "outputs": [],
      "stateMutability": "nonpayable",
      "type": "function"
    }
  ],
  "bytecode": "0x608060405234801561001057600080fd5b5033600260006101000a81548173ffffffffffffffffffffffffffffffffffffffff021916908373ffffffffffffffffffffffffffffffffffffffff1602179055506122bd806100616000396000f3fe6080604052600436106100c25760003560e01c80634fa756871161007f578063a8734f0b11610059578063a8734f0b14610268578063c5e3c565146102a5578063d0ea2e48146102e2578063ed145dfa1461030d576100c2565b80634fa75687146101c4578063840e78fd146101ed5780638cc080251461022b576100c2565b8063134f94e5146100c7578063164e7393146100f05780631b8015911461012d57806330d4872d14610149578063348c5ded1461017257806338bf69221461019b575b600080fd5b3480156100d357600080fd5b506100ee60048036038101906100e99190611273565b610336565b005b3480156100fc57600080fd5b5061011760048036038101906101129190611273565b61040a565b60405161012491906112bb565b60405180910390f35b6101476004803603810190610142919061151a565b610462565b005b34801561015557600080fd5b50610170600480360381019061016b91906115cd565b6106b2565b005b34801561017e57600080fd5b5061019960048036038101906101949190611643565b610901565b005b3480156101a757600080fd5b506101c260048036038101906101bd91906115cd565b6109d9565b005b3480156101d057600080fd5b506101eb60048036038101906101e69190611273565b610c1f565b005b3480156101f957600080fd5b50610214600480360381019061020f9190611273565b610dc4565b604051610222929190611692565b60405180910390f35b34801561023757600080fd5b50610252600480360381019061024d9190611273565b610e15565b60405161025f91906112bb565b60405180910390f35b34801561027457600080fd5b5061028f600480360381019061028a9190611273565b610eb5565b60405161029c91906116ca565b60405180910390f35b3480156102b157600080fd5b506102cc60048036038101906102c79190611273565b610ecd565b6040516102d9919061193b565b60405180910390f35b3480156102ee57600080fd5b506102f7611061565b60405161030491906116ca565b60405180910390f35b34801561031957600080fd5b50610334600480360381019061032f919061195d565b611067565b005b600260009054906101000a900473ffffffffffffffffffffffffffffffffffffffff1673ffffffffffffffffffffffffffffffffffffffff163373ffffffffffffffffffffffffffffffffffffffff16146103c6576040517f08c379a00000000000000000000000000000000000000000000000000000000081526004016103bd90611a0d565b60405180910390fd5b80600560006101000a81548173ffffffffffffffffffffffffffffffffffffffff021916908373ffffffffffffffffffffffffffffffffffffffff16021790555050565b60008060008373ffffffffffffffffffffffffffffffffffffffff1673ffffffffffffffffffffffffffffffffffffffff16815260200190815260200160002060000160149054906101000a900460ff169050919050565b8473ffffffffffffffffffffffffffffffffffffffff166323b872dd33306104c8600360008b73ffffffffffffffffffffffffffffffffffffffff1673ffffffffffffffffffffffffffffffffffffffff16815260200190815260200160002054611101565b6040518463ffffffff1660e01b81526004016104e693929190611a2d565b6020604051808303816000875af1158015610505573d6000803e3d6000fd5b505050506040513d601f19601f820116820180604052508101906105299190611a90565b8061059d575061059960036000600560009054906101000a900473ffffffffffffffffffffffffffffffffffffffff1673ffffffffffffffffffffffffffffffffffffffff1673ffffffffffffffffffffffffffffffffffffffff16815260200190815260200160002054611101565b3410155b6105dc576040517f08c379a00000000000000000000000000000000000000000000000000000000081526004016105d390611b2f565b60405180910390fd5b6105e4611173565b828160400181905250838160200181905250848160000181815250506000808373ffffffffffffffffffffffffffffffffffffffff1673ffffffffffffffffffffffffffffffffffffffff16815260200190815260200160002060010181908060018154018082558091505060019003906000526020600020906003020160009091909190915060008201518160000155602082015181600101908161068a9190611d5b565b5060408201518160020190805190602001906106a7929190611197565b505050505050505050565b808073ffffffffffffffffffffffffffffffffffffffff16638da5cb5b6040518163ffffffff1660e01b8152600401602060405180830381865afa1580156106fe573d6000803e3d6000fd5b505050506040513d601f19601f820116820180604052508101906107229190611e42565b73ffffffffffffffffffffffffffffffffffffffff163373ffffffffffffffffffffffffffffffffffffffff161461078f576040517f08c379a000000000000000000000000000000000000000000000000000000000815260040161078690611ee1565b60405180910390fd5b600160008473ffffffffffffffffffffffffffffffffffffffff1673ffffffffffffffffffffffffffffffffffffffff16815260200190815260200160002060009054906101000a900460ff161561081c576040517f08c379a000000000000000000000000000000000000000000000000000000000815260040161081390611f73565b60405180910390fd5b60018060008573ffffffffffffffffffffffffffffffffffffffff1673ffffffffffffffffffffffffffffffffffffffff16815260200190815260200160002060006101000a81548160ff02191690831515021790555061087c82610c1f565b826000808473ffffffffffffffffffffffffffffffffffffffff1673ffffffffffffffffffffffffffffffffffffffff16815260200190815260200160002060000160006101000a81548173ffffffffffffffffffffffffffffffffffffffff021916908373ffffffffffffffffffffffffffffffffffffffff160217905550505050565b600260009054906101000a900473ffffffffffffffffffffffffffffffffffffffff1673ffffffffffffffffffffffffffffffffffffffff163373ffffffffffffffffffffffffffffffffffffffff1614610991576040517f08c379a000000000000000000000000000000000000000000000000000000000815260040161098890611a0d565b60405180910390fd5b80600360008473ffffffffffffffffffffffffffffffffffffffff1673ffffffffffffffffffffffffffffffffffffffff168152602001908152602001600020819055505050565b808073ffffffffffffffffffffffffffffffffffffffff16638da5cb5b6040518163ffffffff1660e01b8152600401602060405180830381865afa158015610a25573d6000803e3d6000fd5b505050506040513d601f19601f82011682018060405250810190610a499190611e42565b73ffffffffffffffffffffffffffffffffffffffff163373ffffffffffffffffffffffffffffffffffffffff1614610ab6576040517f08c379a0000000000000000000000000000000000000000000000000000000008152600401610aad90611ee1565b60405180910390fd5b600160008473ffffffffffffffffffffffffffffffffffffffff1673ffffffffffffffffffffffffffffffffffffffff16815260200190815260200160002060009054906101000a900460ff1615610b43576040517f08c379a0000000000000000000000000000000000000000000000000000000008152600401610b3a90611f73565b60405180910390fd5b826000808473ffffffffffffffffffffffffffffffffffffffff1673ffffffffffffffffffffffffffffffffffffffff16815260200190815260200160002060000160006101000a81548173ffffffffffffffffffffffffffffffffffffffff021916908373ffffffffffffffffffffffffffffffffffffffff16021790555060018060008573ffffffffffffffffffffffffffffffffffffffff1673ffffffffffffffffffffffffffffffffffffffff16815260200190815260200160002060006101000a81548160ff021916908315150217905550505050565b806000808273ffffffffffffffffffffffffffffffffffffffff1673ffffffffffffffffffffffffffffffffffffffff16815260200190815260200160002060000160149054906101000a900460ff1615610caf576040517f08c379a0000000000000000000000000000000000000000000000000000000008152600401610ca690612005565b60405180910390fd5b60008173ffffffffffffffffffffffffffffffffffffffff166306fdde036040518163ffffffff1660e01b8152600401600060405180830381865afa158015610cfc573d6000803e3d6000fd5b505050506040513d6000823e3d601f19601f82011682018060405250810190610d259190612095565b5103610d66576040517f08c379a0000000000000000000000000000000000000000000000000000000008152600401610d5d9061212a565b60405180910390fd5b60016000808473ffffffffffffffffffffffffffffffffffffffff1673ffffffffffffffffffffffffffffffffffffffff16815260200190815260200160002060000160146101000a81548160ff0219169083151502179055505050565b60006020528060005260406000206000915090508060000160009054906101000a900473ffffffffffffffffffffffffffffffffffffffff16908060000160149054906101000a900460ff16905082565b600080600073ffffffffffffffffffffffffffffffffffffffff166000808573ffffffffffffffffffffffffffffffffffffffff1673ffffffffffffffffffffffffffffffffffffffff16815260200190815260200160002060000160009054906101000a900473ffffffffffffffffffffffffffffffffffffffff1673ffffffffffffffffffffffffffffffffffffffff161415905080915050919050565b60036020528060005260406000206000915090505481565b60606000808373ffffffffffffffffffffffffffffffffffffffff1673ffffffffffffffffffffffffffffffffffffffff168152602001908152602001600020600101805480602002602001604051908101604052809291908181526020016000905b82821015611056578382906000526020600020906003020160405180606001604052908160008201548152602001600182018054610f6d90611b7e565b80601f0160208091040260200160405190810160405280929190818152602001828054610f9990611b7e565b8015610fe65780601f10610fbb57610100808354040283529160200191610fe6565b820191906000526020600020905b815481529060010190602001808311610fc957829003601f168201915b505050505081526020016002820180548060200260200160405190810160405280929190818152602001828054801561103e57602002820191906000526020600020905b81548152602001906001019080831161102a575b50505050508152505081526020019060010190610f30565b505050509050919050565b60045481565b600260009054906101000a900473ffffffffffffffffffffffffffffffffffffffff1673ffffffffffffffffffffffffffffffffffffffff163373ffffffffffffffffffffffffffffffffffffffff16146110f7576040517f08c379a00000000000000000000000000000000000000000000000000000000081526004016110ee90611a0d565b60405180910390fd5b8060048190555050565b6000808211611145576040517f08c379a000000000000000000000000000000000000000000000000000000000815260040161113c90612196565b60405180910390fd5b600060045483670de0b6b3a764000061115e9190612214565b6111689190612245565b905080915050919050565b60405180606001604052806000801916815260200160608152602001606081525090565b8280548282559060005260206000209081019282156111d3579160200282015b828111156111d25782518255916020019190600101906111b7565b5b5090506111e091906111e4565b5090565b5b808211156111fd5760008160009055506001016111e5565b5090565b6000604051905090565b600080fd5b600080fd5b600073ffffffffffffffffffffffffffffffffffffffff82169050919050565b600061124082611215565b9050919050565b61125081611235565b811461125b57600080fd5b50565b60008135905061126d81611247565b92915050565b6000602082840312156112895761128861120b565b5b60006112978482850161125e565b91505092915050565b60008115159050919050565b6112b5816112a0565b82525050565b60006020820190506112d060008301846112ac565b92915050565b6000819050919050565b6112e9816112d6565b81146112f457600080fd5b50565b600081359050611306816112e0565b92915050565b600080fd5b600080fd5b6000601f19601f8301169050919050565b7f4e487b7100000000000000000000000000000000000000000000000000000000600052604160045260246000fd5b61135f82611316565b810181811067ffffffffffffffff8211171561137e5761137d611327565b5b80604052505050565b6000611391611201565b905061139d8282611356565b919050565b600067ffffffffffffffff8211156113bd576113bc611327565b5b6113c682611316565b9050602081019050919050565b82818337600083830152505050565b60006113f56113f0846113a2565b611387565b90508281526020810184848401111561141157611410611311565b5b61141c8482856113d3565b509392505050565b600082601f8301126114395761143861130c565b5b81356114498482602086016113e2565b91505092915050565b600067ffffffffffffffff82111561146d5761146c611327565b5b602082029050602081019050919050565b600080fd5b600061149661149184611452565b611387565b905080838252602082019050602084028301858111156114b9576114b861147e565b5b835b818110156114e257806114ce88826112f7565b8452602084019350506020810190506114bb565b5050509392505050565b600082601f8301126115015761150061130c565b5b8135611511848260208601611483565b91505092915050565b600080600080600060a086880312156115365761153561120b565b5b60006115448882890161125e565b9550506020611555888289016112f7565b945050604086013567ffffffffffffffff81111561157657611575611210565b5b61158288828901611424565b935050606086013567ffffffffffffffff8111156115a3576115a2611210565b5b6115af888289016114ec565b92505060806115c08882890161125e565b9150509295509295909350565b600080604083850312156115e4576115e361120b565b5b60006115f28582860161125e565b92505060206116038582860161125e565b9150509250929050565b6000819050919050565b6116208161160d565b811461162b57600080fd5b50565b60008135905061163d81611617565b92915050565b6000806040838503121561165a5761165961120b565b5b60006116688582860161125e565b92505060206116798582860161162e565b9150509250929050565b61168c81611235565b82525050565b60006040820190506116a76000830185611683565b6116b460208301846112ac565b9392505050565b6116c48161160d565b82525050565b60006020820190506116df60008301846116bb565b92915050565b600081519050919050565b600082825260208201905092915050565b6000819050602082019050919050565b61171a816112d6565b82525050565b600081519050919050565b600082825260208201905092915050565b60005b8381101561175a57808201518184015260208101905061173f565b60008484015250505050565b600061177182611720565b61177b818561172b565b935061178b81856020860161173c565b61179481611316565b840191505092915050565b600081519050919050565b600082825260208201905092915050565b6000819050602082019050919050565b60006117d78383611711565b60208301905092915050565b6000602082019050919050565b60006117fb8261179f565b61180581856117aa565b9350611810836117bb565b8060005b8381101561184157815161182888826117cb565b9750611833836117e3565b925050600181019050611814565b5085935050505092915050565b60006060830160008301516118666000860182611711565b506020830151848203602086015261187e8282611766565b9150506040830151848203604086015261189882826117f0565b9150508091505092915050565b60006118b1838361184e565b905092915050565b6000602082019050919050565b60006118d1826116e5565b6118db81856116f0565b9350836020820285016118ed85611701565b8060005b85811015611929578484038952815161190a85826118a5565b9450611915836118b9565b925060208a019950506001810190506118f1565b50829750879550505050505092915050565b6000602082019050818103600083015261195581846118c6565b905092915050565b6000602082840312156119735761197261120b565b5b60006119818482850161162e565b91505092915050565b600082825260208201905092915050565b7f796f7520617265206e6f74207065726d697474656420746f2063616c6c20746860008201527f69732066756e6374696f6e210000000000000000000000000000000000000000602082015250565b60006119f7602c8361198a565b9150611a028261199b565b604082019050919050565b60006020820190508181036000830152611a26816119ea565b9050919050565b6000606082019050611a426000830186611683565b611a4f6020830185611683565b611a5c60408301846116bb565b949350505050565b611a6d816112a0565b8114611a7857600080fd5b50565b600081519050611a8a81611a64565b92915050565b600060208284031215611aa657611aa561120b565b5b6000611ab484828501611a7b565b91505092915050565b7f50726f766964652066656573206265666f7265206372656174696e6720706f6c60008201527f6c73000000000000000000000000000000000000000000000000000000000000602082015250565b6000611b1960228361198a565b9150611b2482611abd565b604082019050919050565b60006020820190508181036000830152611b4881611b0c565b9050919050565b7f4e487b7100000000000000000000000000000000000000000000000000000000600052602260045260246000fd5b60006002820490506001821680611b9657607f821691505b602082108103611ba957611ba8611b4f565b5b50919050565b60008190508160005260206000209050919050565b60006020601f8301049050919050565b600082821b905092915050565b600060088302611c117fffffffffffffffffffffffffffffffffffffffffffffffffffffffffffffffff82611bd4565b611c1b8683611bd4565b95508019841693508086168417925050509392505050565b6000819050919050565b6000611c58611c53611c4e8461160d565b611c33565b61160d565b9050919050565b6000819050919050565b611c7283611c3d565b611c86611c7e82611c5f565b848454611be1565b825550505050565b600090565b611c9b611c8e565b611ca6818484611c69565b505050565b5b81811015611cca57611cbf600082611c93565b600181019050611cac565b5050565b601f821115611d0f57611ce081611baf565b611ce984611bc4565b81016020851015611cf8578190505b611d0c611d0485611bc4565b830182611cab565b50505b505050565b600082821c905092915050565b6000611d3260001984600802611d14565b1980831691505092915050565b6000611d4b8383611d21565b9150826002028217905092915050565b611d6482611720565b67ffffffffffffffff811115611d7d57611d7c611327565b5b611d878254611b7e565b611d92828285611cce565b600060209050601f831160018114611dc55760008415611db3578287015190505b611dbd8582611d3f565b865550611e25565b601f198416611dd386611baf565b60005b82811015611dfb57848901518255600182019150602085019450602081019050611dd6565b86831015611e185784890151611e14601f891682611d21565b8355505b6001600288020188555050505b505050505050565b600081519050611e3c81611247565b92915050565b600060208284031215611e5857611e5761120b565b5b6000611e6684828501611e2d565b91505092915050565b7f636f6e7472616374206164647265737320646f6573206e6f742062656c6f6e6760008201527f20746f2074686973206164647265737300000000000000000000000000000000602082015250565b6000611ecb60308361198a565b9150611ed682611e6f565b604082019050919050565b60006020820190508181036000830152611efa81611ebe565b9050919050565b7f5468697320616464726573732068617320616c7265616479206265656e206c6960008201527f6e6b656420746f20612070726f6a656374000000000000000000000000000000602082015250565b6000611f5d60318361198a565b9150611f6882611f01565b604082019050919050565b60006020820190508181036000830152611f8c81611f50565b9050919050565b7f546869732070726f6a6563742068617320616c7265616479206265656e206c6960008201527f7374656400000000000000000000000000000000000000000000000000000000602082015250565b6000611fef60248361198a565b9150611ffa82611f93565b604082019050919050565b6000602082019050818103600083015261201e81611fe2565b9050919050565b6000612038612033846113a2565b611387565b90508281526020810184848401111561205457612053611311565b5b61205f84828561173c565b509392505050565b600082601f83011261207c5761207b61130c565b5b815161208c848260208601612025565b91505092915050565b6000602082840312156120ab576120aa61120b565b5b600082015167ffffffffffffffff8111156120c9576120c8611210565b5b6120d584828501612067565b91505092915050565b7f436f6e747261637420646f6573206e6f7420686176652061206e616d65000000600082015250565b6000612114601d8361198a565b915061211f826120de565b602082019050919050565b6000602082019050818103600083015261214381612107565b9050919050565b7f54686520726174652063616e6e6f74206265206c657373207468616e20300000600082015250565b6000612180601e8361198a565b915061218b8261214a565b602082019050919050565b600060208201905081810360008301526121af81612173565b9050919050565b7f4e487b7100000000000000000000000000000000000000000000000000000000600052601260045260246000fd5b7f4e487b7100000000000000000000000000000000000000000000000000000000600052601160045260246000fd5b600061221f8261160d565b915061222a8361160d565b92508261223a576122396121b6565b5b828204905092915050565b60006122508261160d565b915061225b8361160d565b92508282026122698161160d565b915082820484148315176122805761227f6121e5565b5b509291505056fea26469706673582212206de15a956325de8c13f3ff26cf53135055614d4baece2e21f83bba510317a9a964736f6c63430008130033",
  "immutableReferences": {},
  "source": "// SPDX-License-Identifier: MIT\n\npragma solidity ^0.8;\n\nimport \"./Poll.sol\";\n\ncontract DecentraVote is Polls {\n    constructor() {\n        owner = msg.sender;\n    }\n\n    modifier isOwner() {\n        require(\n            msg.sender == owner,\n            \"you are not permitted to call this function!\"\n        );\n        _;\n    }\n\n    function setTokenRates(address _address, uint256 _value) public isOwner {\n        rates[_address] = _value;\n    }\n\n    function setUsdCharge(uint256 _value) public isOwner {\n        usdCharge = _value;\n    }\n\n    function setWbnb(address _address) public isOwner {\n        wBnb = _address;\n    }\n}\n\ncontract Test {\n    constructor() {\n        owner = msg.sender;\n    }\n\n    string public name = \"radiance\";\n    address public owner;\n}\n",
  "sourcePath": "/Users/user/Documents/Projects/ddhub/decentravote-sc/contracts/Decentravote.sol",
  "compiler": {
    "name": "solc",
    "version": "0.8.19+commit.7dd6d404.Emscripten.clang"
  },
  "schemaVersion": "3.4.13",
  "updatedAt": "2023-04-26T19:52:15.430Z",
  "networkType": "ethereum",
  "devdoc": {
    "kind": "dev",
    "methods": {},
    "version": 1
  },
  "userdoc": {
    "kind": "user",
    "methods": {},
    "version": 1
  }
}