{
  "contractName": "DecentraVoteListing",
  "abi": [
    {
      "inputs": [
        {
          "internalType": "address",
          "name": "",
          "type": "address"
        }
      ],
      "name": "projects",
      "outputs": [
        {
          "internalType": "address",
          "name": "walletAddress",
          "type": "address"
        },
        {
          "internalType": "bool",
          "name": "listed",
          "type": "bool"
        }
      ],
      "stateMutability": "view",
      "type": "function"
    },
    {
      "inputs": [
        {
          "internalType": "address",
          "name": "",
          "type": "address"
        }
      ],
      "name": "rates",
      "outputs": [
        {
          "internalType": "uint256",
          "name": "",
          "type": "uint256"
        }
      ],
      "stateMutability": "view",
      "type": "function"
    },
    {
      "inputs": [],
      "name": "usdCharge",
      "outputs": [
        {
          "internalType": "uint256",
          "name": "",
          "type": "uint256"
        }
      ],
      "stateMutability": "view",
      "type": "function"
    },
    {
      "inputs": [
        {
          "internalType": "address",
          "name": "_address",
          "type": "address"
        }
      ],
      "name": "isClaimed",
      "outputs": [
        {
          "internalType": "bool",
          "name": "",
          "type": "bool"
        }
      ],
      "stateMutability": "view",
      "type": "function"
    },
    {
      "inputs": [
        {
          "internalType": "address",
          "name": "_address",
          "type": "address"
        }
      ],
      "name": "getProjectPolls",
      "outputs": [
        {
          "components": [
            {
              "internalType": "bytes32",
              "name": "title",
              "type": "bytes32"
            },
            {
              "internalType": "string",
              "name": "description",
              "type": "string"
            },
            {
              "internalType": "bytes32[]",
              "name": "options",
              "type": "bytes32[]"
            }
          ],
          "internalType": "struct Storage.Poll[]",
          "name": "",
          "type": "tuple[]"
        }
      ],
      "stateMutability": "view",
      "type": "function"
    },
    {
      "inputs": [
        {
          "internalType": "address",
          "name": "_registeredAddress",
          "type": "address"
        },
        {
          "internalType": "address",
          "name": "_projectAddress",
          "type": "address"
        }
      ],
      "name": "claimProject",
      "outputs": [],
      "stateMutability": "nonpayable",
      "type": "function"
    },
    {
      "inputs": [
        {
          "internalType": "address",
          "name": "_registeredAddress",
          "type": "address"
        },
        {
          "internalType": "address",
          "name": "_projectAddress",
          "type": "address"
        }
      ],
      "name": "listAndClaimProject",
      "outputs": [],
      "stateMutability": "nonpayable",
      "type": "function"
    },
    {
      "inputs": [
        {
          "internalType": "address",
          "name": "_projectAddress",
          "type": "address"
        }
      ],
      "name": "listProject",
      "outputs": [],
      "stateMutability": "nonpayable",
      "type": "function"
    },
    {
      "inputs": [
        {
          "internalType": "address",
          "name": "_address",
          "type": "address"
        }
      ],
      "name": "checkProjectListing",
      "outputs": [
        {
          "internalType": "bool",
          "name": "",
          "type": "bool"
        }
      ],
      "stateMutability": "view",
      "type": "function"
    }
  ],
  "bytecode": "0x6080604052600560045534801561001557600080fd5b506113be806100256000396000f3fe608060405234801561001057600080fd5b50600436106100935760003560e01c8063840e78fd11610066578063840e78fd1461011c5780638cc080251461014d578063a8734f0b1461017d578063c5e3c565146101ad578063d0ea2e48146101dd57610093565b8063164e73931461009857806330d4872d146100c857806338bf6922146100e45780634fa7568714610100575b600080fd5b6100b260048036038101906100ad9190610ba2565b6101fb565b6040516100bf9190610bea565b60405180910390f35b6100e260048036038101906100dd9190610c05565b610253565b005b6100fe60048036038101906100f99190610c05565b6104a2565b005b61011a60048036038101906101159190610ba2565b6106e8565b005b61013660048036038101906101319190610ba2565b61088d565b604051610144929190610c54565b60405180910390f35b61016760048036038101906101629190610ba2565b6108de565b6040516101749190610bea565b60405180910390f35b61019760048036038101906101929190610ba2565b61097e565b6040516101a49190610c96565b60405180910390f35b6101c760048036038101906101c29190610ba2565b610996565b6040516101d49190610f22565b60405180910390f35b6101e5610b2a565b6040516101f29190610c96565b60405180910390f35b60008060008373ffffffffffffffffffffffffffffffffffffffff1673ffffffffffffffffffffffffffffffffffffffff16815260200190815260200160002060000160149054906101000a900460ff169050919050565b808073ffffffffffffffffffffffffffffffffffffffff16638da5cb5b6040518163ffffffff1660e01b8152600401602060405180830381865afa15801561029f573d6000803e3d6000fd5b505050506040513d601f19601f820116820180604052508101906102c39190610f59565b73ffffffffffffffffffffffffffffffffffffffff163373ffffffffffffffffffffffffffffffffffffffff1614610330576040517f08c379a000000000000000000000000000000000000000000000000000000000815260040161032790611009565b60405180910390fd5b600160008473ffffffffffffffffffffffffffffffffffffffff1673ffffffffffffffffffffffffffffffffffffffff16815260200190815260200160002060009054906101000a900460ff16156103bd576040517f08c379a00000000000000000000000000000000000000000000000000000000081526004016103b49061109b565b60405180910390fd5b60018060008573ffffffffffffffffffffffffffffffffffffffff1673ffffffffffffffffffffffffffffffffffffffff16815260200190815260200160002060006101000a81548160ff02191690831515021790555061041d826106e8565b826000808473ffffffffffffffffffffffffffffffffffffffff1673ffffffffffffffffffffffffffffffffffffffff16815260200190815260200160002060000160006101000a81548173ffffffffffffffffffffffffffffffffffffffff021916908373ffffffffffffffffffffffffffffffffffffffff160217905550505050565b808073ffffffffffffffffffffffffffffffffffffffff16638da5cb5b6040518163ffffffff1660e01b8152600401602060405180830381865afa1580156104ee573d6000803e3d6000fd5b505050506040513d601f19601f820116820180604052508101906105129190610f59565b73ffffffffffffffffffffffffffffffffffffffff163373ffffffffffffffffffffffffffffffffffffffff161461057f576040517f08c379a000000000000000000000000000000000000000000000000000000000815260040161057690611009565b60405180910390fd5b600160008473ffffffffffffffffffffffffffffffffffffffff1673ffffffffffffffffffffffffffffffffffffffff16815260200190815260200160002060009054906101000a900460ff161561060c576040517f08c379a00000000000000000000000000000000000000000000000000000000081526004016106039061109b565b60405180910390fd5b826000808473ffffffffffffffffffffffffffffffffffffffff1673ffffffffffffffffffffffffffffffffffffffff16815260200190815260200160002060000160006101000a81548173ffffffffffffffffffffffffffffffffffffffff021916908373ffffffffffffffffffffffffffffffffffffffff16021790555060018060008573ffffffffffffffffffffffffffffffffffffffff1673ffffffffffffffffffffffffffffffffffffffff16815260200190815260200160002060006101000a81548160ff021916908315150217905550505050565b806000808273ffffffffffffffffffffffffffffffffffffffff1673ffffffffffffffffffffffffffffffffffffffff16815260200190815260200160002060000160149054906101000a900460ff1615610778576040517f08c379a000000000000000000000000000000000000000000000000000000000815260040161076f9061112d565b60405180910390fd5b60008173ffffffffffffffffffffffffffffffffffffffff166306fdde036040518163ffffffff1660e01b8152600401600060405180830381865afa1580156107c5573d6000803e3d6000fd5b505050506040513d6000823e3d601f19601f820116820180604052508101906107ee9190611273565b510361082f576040517f08c379a000000000000000000000000000000000000000000000000000000000815260040161082690611308565b60405180910390fd5b60016000808473ffffffffffffffffffffffffffffffffffffffff1673ffffffffffffffffffffffffffffffffffffffff16815260200190815260200160002060000160146101000a81548160ff0219169083151502179055505050565b60006020528060005260406000206000915090508060000160009054906101000a900473ffffffffffffffffffffffffffffffffffffffff16908060000160149054906101000a900460ff16905082565b600080600073ffffffffffffffffffffffffffffffffffffffff166000808573ffffffffffffffffffffffffffffffffffffffff1673ffffffffffffffffffffffffffffffffffffffff16815260200190815260200160002060000160009054906101000a900473ffffffffffffffffffffffffffffffffffffffff1673ffffffffffffffffffffffffffffffffffffffff161415905080915050919050565b60036020528060005260406000206000915090505481565b60606000808373ffffffffffffffffffffffffffffffffffffffff1673ffffffffffffffffffffffffffffffffffffffff168152602001908152602001600020600101805480602002602001604051908101604052809291908181526020016000905b82821015610b1f578382906000526020600020906003020160405180606001604052908160008201548152602001600182018054610a3690611357565b80601f0160208091040260200160405190810160405280929190818152602001828054610a6290611357565b8015610aaf5780601f10610a8457610100808354040283529160200191610aaf565b820191906000526020600020905b815481529060010190602001808311610a9257829003601f168201915b5050505050815260200160028201805480602002602001604051908101604052809291908181526020018280548015610b0757602002820191906000526020600020905b815481526020019060010190808311610af3575b505050505081525050815260200190600101906109f9565b505050509050919050565b60045481565b6000604051905090565b600080fd5b600080fd5b600073ffffffffffffffffffffffffffffffffffffffff82169050919050565b6000610b6f82610b44565b9050919050565b610b7f81610b64565b8114610b8a57600080fd5b50565b600081359050610b9c81610b76565b92915050565b600060208284031215610bb857610bb7610b3a565b5b6000610bc684828501610b8d565b91505092915050565b60008115159050919050565b610be481610bcf565b82525050565b6000602082019050610bff6000830184610bdb565b92915050565b60008060408385031215610c1c57610c1b610b3a565b5b6000610c2a85828601610b8d565b9250506020610c3b85828601610b8d565b9150509250929050565b610c4e81610b64565b82525050565b6000604082019050610c696000830185610c45565b610c766020830184610bdb565b9392505050565b6000819050919050565b610c9081610c7d565b82525050565b6000602082019050610cab6000830184610c87565b92915050565b600081519050919050565b600082825260208201905092915050565b6000819050602082019050919050565b6000819050919050565b610cf081610cdd565b82525050565b600081519050919050565b600082825260208201905092915050565b60005b83811015610d30578082015181840152602081019050610d15565b60008484015250505050565b6000601f19601f8301169050919050565b6000610d5882610cf6565b610d628185610d01565b9350610d72818560208601610d12565b610d7b81610d3c565b840191505092915050565b600081519050919050565b600082825260208201905092915050565b6000819050602082019050919050565b6000610dbe8383610ce7565b60208301905092915050565b6000602082019050919050565b6000610de282610d86565b610dec8185610d91565b9350610df783610da2565b8060005b83811015610e28578151610e0f8882610db2565b9750610e1a83610dca565b925050600181019050610dfb565b5085935050505092915050565b6000606083016000830151610e4d6000860182610ce7565b5060208301518482036020860152610e658282610d4d565b91505060408301518482036040860152610e7f8282610dd7565b9150508091505092915050565b6000610e988383610e35565b905092915050565b6000602082019050919050565b6000610eb882610cb1565b610ec28185610cbc565b935083602082028501610ed485610ccd565b8060005b85811015610f105784840389528151610ef18582610e8c565b9450610efc83610ea0565b925060208a01995050600181019050610ed8565b50829750879550505050505092915050565b60006020820190508181036000830152610f3c8184610ead565b905092915050565b600081519050610f5381610b76565b92915050565b600060208284031215610f6f57610f6e610b3a565b5b6000610f7d84828501610f44565b91505092915050565b600082825260208201905092915050565b7f636f6e7472616374206164647265737320646f6573206e6f742062656c6f6e6760008201527f20746f2074686973206164647265737300000000000000000000000000000000602082015250565b6000610ff3603083610f86565b9150610ffe82610f97565b604082019050919050565b6000602082019050818103600083015261102281610fe6565b9050919050565b7f5468697320616464726573732068617320616c7265616479206265656e206c6960008201527f6e6b656420746f20612070726f6a656374000000000000000000000000000000602082015250565b6000611085603183610f86565b915061109082611029565b604082019050919050565b600060208201905081810360008301526110b481611078565b9050919050565b7f546869732070726f6a6563742068617320616c7265616479206265656e206c6960008201527f7374656400000000000000000000000000000000000000000000000000000000602082015250565b6000611117602483610f86565b9150611122826110bb565b604082019050919050565b600060208201905081810360008301526111468161110a565b9050919050565b600080fd5b600080fd5b7f4e487b7100000000000000000000000000000000000000000000000000000000600052604160045260246000fd5b61118f82610d3c565b810181811067ffffffffffffffff821117156111ae576111ad611157565b5b80604052505050565b60006111c1610b30565b90506111cd8282611186565b919050565b600067ffffffffffffffff8211156111ed576111ec611157565b5b6111f682610d3c565b9050602081019050919050565b6000611216611211846111d2565b6111b7565b90508281526020810184848401111561123257611231611152565b5b61123d848285610d12565b509392505050565b600082601f83011261125a5761125961114d565b5b815161126a848260208601611203565b91505092915050565b60006020828403121561128957611288610b3a565b5b600082015167ffffffffffffffff8111156112a7576112a6610b3f565b5b6112b384828501611245565b91505092915050565b7f436f6e747261637420646f6573206e6f7420686176652061206e616d65000000600082015250565b60006112f2601d83610f86565b91506112fd826112bc565b602082019050919050565b60006020820190508181036000830152611321816112e5565b9050919050565b7f4e487b7100000000000000000000000000000000000000000000000000000000600052602260045260246000fd5b6000600282049050600182168061136f57607f821691505b60208210810361138257611381611328565b5b5091905056fea2646970667358221220e59be0132f515dfcb73bcb99c052ef26859952d6c25887b465b729fd45bfcc3964736f6c63430008130033",
  "immutableReferences": {},
  "source": "// SPDX-License-Identifier: MIT\npragma solidity ^0.8;\nimport \"./Storage.sol\";\n\nabstract contract ProjectContract {\n    address public owner;\n\n    function name() public view virtual returns (string memory);\n\n    function symbol() public view virtual returns (string memory);\n}\n\ncontract DecentraVoteListing is Storage {\n    function isClaimed(address _address) public view returns (bool) {\n        bool claimed = projects[_address].walletAddress != address(0);\n        return claimed;\n    }\n\n    function getProjectPolls(\n        address _address\n    ) public view returns (Poll[] memory) {\n        return projects[_address].polls;\n    }\n\n    modifier isProjectAddressDeployer(address _projectAddress) {\n        require(\n            msg.sender == ProjectContract(_projectAddress).owner(),\n            \"contract address does not belong to this address\"\n        );\n        _;\n    }\n\n    function claimProject(\n        address _registeredAddress,\n        address _projectAddress\n    ) public isProjectAddressDeployer(_projectAddress) {\n        require(\n            !hasProject[_registeredAddress],\n            \"This address has already been linked to a project\"\n        );\n        projects[_projectAddress].walletAddress = _registeredAddress;\n        hasProject[_registeredAddress] = true;\n        //emit an event\n    }\n\n    modifier isNotListedAndHasName(address _projectAddress) {\n        require(\n            !projects[_projectAddress].listed,\n            \"This project has already been listed\"\n        );\n        require(\n            bytes(ProjectContract(_projectAddress).name()).length != 0,\n            \"Contract does not have a name\"\n        );\n        _;\n    }\n\n    function listAndClaimProject(\n        address _registeredAddress,\n        address _projectAddress\n    ) public isProjectAddressDeployer(_projectAddress) {\n        require(\n            !hasProject[_registeredAddress],\n            \"This address has already been linked to a project\"\n        );\n        hasProject[_registeredAddress] = true;\n        // projects[_projectAddress].listed = true;\n        listProject(_projectAddress);\n        projects[_projectAddress].walletAddress = _registeredAddress;\n    }\n\n    function listProject(\n        address _projectAddress\n    ) public isNotListedAndHasName(_projectAddress) {\n        projects[_projectAddress].listed = true;\n    }\n\n    function checkProjectListing(address _address) public view returns (bool) {\n        return projects[_address].listed;\n    }\n}\n",
  "sourcePath": "/Users/user/Documents/Projects/ddhub/decentravote-sc/contracts/DecentraVoteListing.sol",
  "compiler": {
    "name": "solc",
    "version": "0.8.19+commit.7dd6d404.Emscripten.clang"
  },
  "schemaVersion": "3.4.13",
  "updatedAt": "2023-04-26T12:00:37.695Z",
  "devdoc": {
    "kind": "dev",
    "methods": {},
    "version": 1
  },
  "userdoc": {
    "kind": "user",
    "methods": {},
    "version": 1
  }
}