{
  "contractName": "DecentraVoteListing",
  "abi": [
    {
      "inputs": [
        {
          "internalType": "address",
          "name": "",
          "type": "address"
        }
      ],
      "name": "projects",
      "outputs": [
        {
          "internalType": "address",
          "name": "walletAddress",
          "type": "address"
        },
        {
          "internalType": "bool",
          "name": "listed",
          "type": "bool"
        }
      ],
      "stateMutability": "view",
      "type": "function"
    },
    {
      "inputs": [
        {
          "internalType": "address",
          "name": "_address",
          "type": "address"
        }
      ],
      "name": "isClaimed",
      "outputs": [
        {
          "internalType": "bool",
          "name": "",
          "type": "bool"
        }
      ],
      "stateMutability": "view",
      "type": "function"
    },
    {
      "inputs": [
        {
          "internalType": "address",
          "name": "_address",
          "type": "address"
        }
      ],
      "name": "getProjectPolls",
      "outputs": [
        {
          "components": [
            {
              "internalType": "bytes32",
              "name": "title",
              "type": "bytes32"
            },
            {
              "internalType": "string",
              "name": "description",
              "type": "string"
            },
            {
              "internalType": "bytes32[]",
              "name": "options",
              "type": "bytes32[]"
            }
          ],
          "internalType": "struct DecentraVoteListing.Poll[]",
          "name": "",
          "type": "tuple[]"
        }
      ],
      "stateMutability": "view",
      "type": "function"
    },
    {
      "inputs": [
        {
          "internalType": "address",
          "name": "_registeredAddress",
          "type": "address"
        },
        {
          "internalType": "address",
          "name": "_projectAddress",
          "type": "address"
        }
      ],
      "name": "claimProject",
      "outputs": [],
      "stateMutability": "nonpayable",
      "type": "function"
    },
    {
      "inputs": [
        {
          "internalType": "address",
          "name": "_registeredAddress",
          "type": "address"
        },
        {
          "internalType": "address",
          "name": "_projectAddress",
          "type": "address"
        }
      ],
      "name": "listAndVerifyProject",
      "outputs": [],
      "stateMutability": "nonpayable",
      "type": "function"
    },
    {
      "inputs": [
        {
          "internalType": "address",
          "name": "_projectAddress",
          "type": "address"
        }
      ],
      "name": "listProject",
      "outputs": [],
      "stateMutability": "nonpayable",
      "type": "function"
    },
    {
      "inputs": [
        {
          "internalType": "address",
          "name": "_address",
          "type": "address"
        }
      ],
      "name": "checkProjectListing",
      "outputs": [
        {
          "internalType": "bool",
          "name": "",
          "type": "bool"
        }
      ],
      "stateMutability": "view",
      "type": "function"
    }
  ],
  "bytecode": "0x608060405234801561001057600080fd5b50611308806100206000396000f3fe608060405234801561001057600080fd5b506004361061007d5760003560e01c8063840e78fd1161005b578063840e78fd146100ea5780638cc080251461011b578063c5e3c5651461014b578063d689c50b1461017b5761007d565b8063164e73931461008257806338bf6922146100b25780634fa75687146100ce575b600080fd5b61009c60048036038101906100979190610b20565b610197565b6040516100a99190610b68565b60405180910390f35b6100cc60048036038101906100c79190610b83565b6101ef565b005b6100e860048036038101906100e39190610b20565b610435565b005b61010460048036038101906100ff9190610b20565b6105da565b604051610112929190610bd2565b60405180910390f35b61013560048036038101906101309190610b20565b61062b565b6040516101429190610b68565b60405180910390f35b61016560048036038101906101609190610b20565b6106cb565b6040516101729190610e6c565b60405180910390f35b61019560048036038101906101909190610b83565b61085f565b005b60008060008373ffffffffffffffffffffffffffffffffffffffff1673ffffffffffffffffffffffffffffffffffffffff16815260200190815260200160002060000160149054906101000a900460ff169050919050565b808073ffffffffffffffffffffffffffffffffffffffff16638da5cb5b6040518163ffffffff1660e01b8152600401602060405180830381865afa15801561023b573d6000803e3d6000fd5b505050506040513d601f19601f8201168201806040525081019061025f9190610ea3565b73ffffffffffffffffffffffffffffffffffffffff163373ffffffffffffffffffffffffffffffffffffffff16146102cc576040517f08c379a00000000000000000000000000000000000000000000000000000000081526004016102c390610f53565b60405180910390fd5b600160008473ffffffffffffffffffffffffffffffffffffffff1673ffffffffffffffffffffffffffffffffffffffff16815260200190815260200160002060009054906101000a900460ff1615610359576040517f08c379a000000000000000000000000000000000000000000000000000000000815260040161035090610fe5565b60405180910390fd5b826000808473ffffffffffffffffffffffffffffffffffffffff1673ffffffffffffffffffffffffffffffffffffffff16815260200190815260200160002060000160006101000a81548173ffffffffffffffffffffffffffffffffffffffff021916908373ffffffffffffffffffffffffffffffffffffffff16021790555060018060008573ffffffffffffffffffffffffffffffffffffffff1673ffffffffffffffffffffffffffffffffffffffff16815260200190815260200160002060006101000a81548160ff021916908315150217905550505050565b806000808273ffffffffffffffffffffffffffffffffffffffff1673ffffffffffffffffffffffffffffffffffffffff16815260200190815260200160002060000160149054906101000a900460ff16156104c5576040517f08c379a00000000000000000000000000000000000000000000000000000000081526004016104bc90611077565b60405180910390fd5b60008173ffffffffffffffffffffffffffffffffffffffff166306fdde036040518163ffffffff1660e01b8152600401600060405180830381865afa158015610512573d6000803e3d6000fd5b505050506040513d6000823e3d601f19601f8201168201806040525081019061053b91906111bd565b510361057c576040517f08c379a000000000000000000000000000000000000000000000000000000000815260040161057390611252565b60405180910390fd5b60016000808473ffffffffffffffffffffffffffffffffffffffff1673ffffffffffffffffffffffffffffffffffffffff16815260200190815260200160002060000160146101000a81548160ff0219169083151502179055505050565b60006020528060005260406000206000915090508060000160009054906101000a900473ffffffffffffffffffffffffffffffffffffffff16908060000160149054906101000a900460ff16905082565b600080600073ffffffffffffffffffffffffffffffffffffffff166000808573ffffffffffffffffffffffffffffffffffffffff1673ffffffffffffffffffffffffffffffffffffffff16815260200190815260200160002060000160009054906101000a900473ffffffffffffffffffffffffffffffffffffffff1673ffffffffffffffffffffffffffffffffffffffff161415905080915050919050565b60606000808373ffffffffffffffffffffffffffffffffffffffff1673ffffffffffffffffffffffffffffffffffffffff168152602001908152602001600020600101805480602002602001604051908101604052809291908181526020016000905b8282101561085457838290600052602060002090600302016040518060600160405290816000820154815260200160018201805461076b906112a1565b80601f0160208091040260200160405190810160405280929190818152602001828054610797906112a1565b80156107e45780601f106107b9576101008083540402835291602001916107e4565b820191906000526020600020905b8154815290600101906020018083116107c757829003601f168201915b505050505081526020016002820180548060200260200160405190810160405280929190818152602001828054801561083c57602002820191906000526020600020905b815481526020019060010190808311610828575b5050505050815250508152602001906001019061072e565b505050509050919050565b808073ffffffffffffffffffffffffffffffffffffffff16638da5cb5b6040518163ffffffff1660e01b8152600401602060405180830381865afa1580156108ab573d6000803e3d6000fd5b505050506040513d601f19601f820116820180604052508101906108cf9190610ea3565b73ffffffffffffffffffffffffffffffffffffffff163373ffffffffffffffffffffffffffffffffffffffff161461093c576040517f08c379a000000000000000000000000000000000000000000000000000000000815260040161093390610f53565b60405180910390fd5b600160008473ffffffffffffffffffffffffffffffffffffffff1673ffffffffffffffffffffffffffffffffffffffff16815260200190815260200160002060009054906101000a900460ff16156109c9576040517f08c379a00000000000000000000000000000000000000000000000000000000081526004016109c090610fe5565b60405180910390fd5b60018060008573ffffffffffffffffffffffffffffffffffffffff1673ffffffffffffffffffffffffffffffffffffffff16815260200190815260200160002060006101000a81548160ff021916908315150217905550610a2982610435565b826000808473ffffffffffffffffffffffffffffffffffffffff1673ffffffffffffffffffffffffffffffffffffffff16815260200190815260200160002060000160006101000a81548173ffffffffffffffffffffffffffffffffffffffff021916908373ffffffffffffffffffffffffffffffffffffffff160217905550505050565b6000604051905090565b600080fd5b600080fd5b600073ffffffffffffffffffffffffffffffffffffffff82169050919050565b6000610aed82610ac2565b9050919050565b610afd81610ae2565b8114610b0857600080fd5b50565b600081359050610b1a81610af4565b92915050565b600060208284031215610b3657610b35610ab8565b5b6000610b4484828501610b0b565b91505092915050565b60008115159050919050565b610b6281610b4d565b82525050565b6000602082019050610b7d6000830184610b59565b92915050565b60008060408385031215610b9a57610b99610ab8565b5b6000610ba885828601610b0b565b9250506020610bb985828601610b0b565b9150509250929050565b610bcc81610ae2565b82525050565b6000604082019050610be76000830185610bc3565b610bf46020830184610b59565b9392505050565b600081519050919050565b600082825260208201905092915050565b6000819050602082019050919050565b6000819050919050565b610c3a81610c27565b82525050565b600081519050919050565b600082825260208201905092915050565b60005b83811015610c7a578082015181840152602081019050610c5f565b60008484015250505050565b6000601f19601f8301169050919050565b6000610ca282610c40565b610cac8185610c4b565b9350610cbc818560208601610c5c565b610cc581610c86565b840191505092915050565b600081519050919050565b600082825260208201905092915050565b6000819050602082019050919050565b6000610d088383610c31565b60208301905092915050565b6000602082019050919050565b6000610d2c82610cd0565b610d368185610cdb565b9350610d4183610cec565b8060005b83811015610d72578151610d598882610cfc565b9750610d6483610d14565b925050600181019050610d45565b5085935050505092915050565b6000606083016000830151610d976000860182610c31565b5060208301518482036020860152610daf8282610c97565b91505060408301518482036040860152610dc98282610d21565b9150508091505092915050565b6000610de28383610d7f565b905092915050565b6000602082019050919050565b6000610e0282610bfb565b610e0c8185610c06565b935083602082028501610e1e85610c17565b8060005b85811015610e5a5784840389528151610e3b8582610dd6565b9450610e4683610dea565b925060208a01995050600181019050610e22565b50829750879550505050505092915050565b60006020820190508181036000830152610e868184610df7565b905092915050565b600081519050610e9d81610af4565b92915050565b600060208284031215610eb957610eb8610ab8565b5b6000610ec784828501610e8e565b91505092915050565b600082825260208201905092915050565b7f636f6e7472616374206164647265737320646f6573206e6f742062656c6f6e6760008201527f20746f2074686973206164647265737300000000000000000000000000000000602082015250565b6000610f3d603083610ed0565b9150610f4882610ee1565b604082019050919050565b60006020820190508181036000830152610f6c81610f30565b9050919050565b7f5468697320616464726573732068617320616c7265616479206265656e206c6960008201527f6e6b656420746f20612070726f6a656374000000000000000000000000000000602082015250565b6000610fcf603183610ed0565b9150610fda82610f73565b604082019050919050565b60006020820190508181036000830152610ffe81610fc2565b9050919050565b7f546869732070726f6a6563742068617320616c7265616479206265656e206c6960008201527f7374656400000000000000000000000000000000000000000000000000000000602082015250565b6000611061602483610ed0565b915061106c82611005565b604082019050919050565b6000602082019050818103600083015261109081611054565b9050919050565b600080fd5b600080fd5b7f4e487b7100000000000000000000000000000000000000000000000000000000600052604160045260246000fd5b6110d982610c86565b810181811067ffffffffffffffff821117156110f8576110f76110a1565b5b80604052505050565b600061110b610aae565b905061111782826110d0565b919050565b600067ffffffffffffffff821115611137576111366110a1565b5b61114082610c86565b9050602081019050919050565b600061116061115b8461111c565b611101565b90508281526020810184848401111561117c5761117b61109c565b5b611187848285610c5c565b509392505050565b600082601f8301126111a4576111a3611097565b5b81516111b484826020860161114d565b91505092915050565b6000602082840312156111d3576111d2610ab8565b5b600082015167ffffffffffffffff8111156111f1576111f0610abd565b5b6111fd8482850161118f565b91505092915050565b7f436f6e747261637420646f6573206e6f7420686176652061206e616d65000000600082015250565b600061123c601d83610ed0565b915061124782611206565b602082019050919050565b6000602082019050818103600083015261126b8161122f565b9050919050565b7f4e487b7100000000000000000000000000000000000000000000000000000000600052602260045260246000fd5b600060028204905060018216806112b957607f821691505b6020821081036112cc576112cb611272565b5b5091905056fea264697066735822122025e98970d6b3ee1b8a0fa4be80a211a4086bae11b18a0e368de86ab937fc61b864736f6c63430008130033",
  "immutableReferences": {},
  "source": "// SPDX-License-Identifier: MIT\npragma solidity ^0.8;\n\nabstract contract ProjectContract {\n    address public owner;\n\n    function name() public view virtual returns (string memory);\n\n    function symbol() public view virtual returns (string memory);\n}\n\ncontract DecentraVoteListing {\n    struct Poll {\n        bytes32 title;\n        string description;\n        bytes32[] options;\n    }\n\n    struct Projects {\n        address walletAddress;\n        bool listed;\n        Poll[] polls;\n    }\n\n    //entry point variable for projects\n    mapping(address => Projects) public projects;\n\n    mapping(address => bool) hasProject;\n\n    function isClaimed(address _address) public view returns (bool) {\n        bool claimed = projects[_address].walletAddress != address(0);\n        return claimed;\n    }\n\n    function getProjectPolls(\n        address _address\n    ) public view returns (Poll[] memory) {\n        return projects[_address].polls;\n    }\n\n    modifier isProjectAddressDeployer(address _projectAddress) {\n        require(\n            msg.sender == ProjectContract(_projectAddress).owner(),\n            \"contract address does not belong to this address\"\n        );\n        _;\n    }\n\n    function claimProject(\n        address _registeredAddress,\n        address _projectAddress\n    ) public isProjectAddressDeployer(_projectAddress) {\n        require(\n            !hasProject[_registeredAddress],\n            \"This address has already been linked to a project\"\n        );\n        projects[_projectAddress].walletAddress = _registeredAddress;\n        hasProject[_registeredAddress] = true;\n        //emit an event\n    }\n\n    modifier isNotListedAndHasName(address _projectAddress) {\n        require(\n            !projects[_projectAddress].listed,\n            \"This project has already been listed\"\n        );\n        require(\n            bytes(ProjectContract(_projectAddress).name()).length != 0,\n            \"Contract does not have a name\"\n        );\n        _;\n    }\n\n    function listAndVerifyProject(\n        address _registeredAddress,\n        address _projectAddress\n    ) public isProjectAddressDeployer(_projectAddress) {\n        require(\n            !hasProject[_registeredAddress],\n            \"This address has already been linked to a project\"\n        );\n        hasProject[_registeredAddress] = true;\n        // projects[_projectAddress].listed = true;\n        listProject(_projectAddress);\n        projects[_projectAddress].walletAddress = _registeredAddress;\n    }\n\n    function listProject(\n        address _projectAddress\n    ) public isNotListedAndHasName(_projectAddress) {\n        projects[_projectAddress].listed = true;\n    }\n\n    function checkProjectListing(address _address) public view returns (bool) {\n        return projects[_address].listed;\n    }\n}\n",
  "sourcePath": "/Users/user/Documents/Projects/ddhub/decentravote-sc/contracts/DecentraVoteListing.sol",
  "compiler": {
    "name": "solc",
    "version": "0.8.19+commit.7dd6d404.Emscripten.clang"
  },
  "schemaVersion": "3.4.13",
  "updatedAt": "2023-04-25T22:52:33.754Z",
  "devdoc": {
    "kind": "dev",
    "methods": {},
    "version": 1
  },
  "userdoc": {
    "kind": "user",
    "methods": {},
    "version": 1
  }
}