{
  "contractName": "DecentraVote",
  "abi": [
    {
      "inputs": [],
      "stateMutability": "nonpayable",
      "type": "constructor"
    },
    {
      "inputs": [],
      "name": "bnbCharge",
      "outputs": [
        {
          "internalType": "uint256",
          "name": "",
          "type": "uint256"
        }
      ],
      "stateMutability": "view",
      "type": "function"
    },
    {
      "inputs": [
        {
          "internalType": "address",
          "name": "",
          "type": "address"
        }
      ],
      "name": "charges",
      "outputs": [
        {
          "internalType": "uint256",
          "name": "",
          "type": "uint256"
        }
      ],
      "stateMutability": "view",
      "type": "function"
    },
    {
      "inputs": [
        {
          "internalType": "address",
          "name": "_address",
          "type": "address"
        }
      ],
      "name": "checkProjectListing",
      "outputs": [
        {
          "internalType": "bool",
          "name": "",
          "type": "bool"
        }
      ],
      "stateMutability": "view",
      "type": "function"
    },
    {
      "inputs": [
        {
          "internalType": "address",
          "name": "_registeredAddress",
          "type": "address"
        },
        {
          "internalType": "address",
          "name": "_projectAddress",
          "type": "address"
        }
      ],
      "name": "claimProject",
      "outputs": [],
      "stateMutability": "nonpayable",
      "type": "function"
    },
    {
      "inputs": [
        {
          "internalType": "address",
          "name": "_address",
          "type": "address"
        },
        {
          "internalType": "bytes32",
          "name": "_title",
          "type": "bytes32"
        },
        {
          "internalType": "string",
          "name": "_description",
          "type": "string"
        },
        {
          "internalType": "bytes32[]",
          "name": "_options",
          "type": "bytes32[]"
        },
        {
          "internalType": "address",
          "name": "_projectAddress",
          "type": "address"
        }
      ],
      "name": "createPoll",
      "outputs": [],
      "stateMutability": "payable",
      "type": "function"
    },
    {
      "inputs": [
        {
          "internalType": "address",
          "name": "_address",
          "type": "address"
        }
      ],
      "name": "getProjectPolls",
      "outputs": [
        {
          "components": [
            {
              "internalType": "bytes32",
              "name": "title",
              "type": "bytes32"
            },
            {
              "internalType": "string",
              "name": "description",
              "type": "string"
            },
            {
              "internalType": "bytes32[]",
              "name": "options",
              "type": "bytes32[]"
            }
          ],
          "internalType": "struct DecentraVoteListing.Poll[]",
          "name": "",
          "type": "tuple[]"
        }
      ],
      "stateMutability": "view",
      "type": "function"
    },
    {
      "inputs": [
        {
          "internalType": "address",
          "name": "_address",
          "type": "address"
        }
      ],
      "name": "isClaimed",
      "outputs": [
        {
          "internalType": "bool",
          "name": "",
          "type": "bool"
        }
      ],
      "stateMutability": "view",
      "type": "function"
    },
    {
      "inputs": [
        {
          "internalType": "address",
          "name": "_registeredAddress",
          "type": "address"
        },
        {
          "internalType": "address",
          "name": "_projectAddress",
          "type": "address"
        }
      ],
      "name": "listAndVerifyProject",
      "outputs": [],
      "stateMutability": "nonpayable",
      "type": "function"
    },
    {
      "inputs": [
        {
          "internalType": "address",
          "name": "_projectAddress",
          "type": "address"
        }
      ],
      "name": "listProject",
      "outputs": [],
      "stateMutability": "nonpayable",
      "type": "function"
    },
    {
      "inputs": [
        {
          "internalType": "address",
          "name": "",
          "type": "address"
        }
      ],
      "name": "projects",
      "outputs": [
        {
          "internalType": "address",
          "name": "walletAddress",
          "type": "address"
        },
        {
          "internalType": "bool",
          "name": "listed",
          "type": "bool"
        }
      ],
      "stateMutability": "view",
      "type": "function"
    },
    {
      "inputs": [
        {
          "internalType": "address",
          "name": "_address",
          "type": "address"
        },
        {
          "internalType": "uint256",
          "name": "_charge",
          "type": "uint256"
        }
      ],
      "name": "addTokenCharges",
      "outputs": [],
      "stateMutability": "nonpayable",
      "type": "function"
    },
    {
      "inputs": [
        {
          "internalType": "uint256",
          "name": "_charge",
          "type": "uint256"
        }
      ],
      "name": "setBnbCharge",
      "outputs": [],
      "stateMutability": "nonpayable",
      "type": "function"
    }
  ],
  "bytecode": "0x608060405234801561001057600080fd5b5033600460006101000a81548173ffffffffffffffffffffffffffffffffffffffff021916908373ffffffffffffffffffffffffffffffffffffffff1602179055506123a1806100616000396000f3fe6080604052600436106100a75760003560e01c8063840e78fd11610064578063840e78fd146101a95780638cc08025146101e75780639ab537cc14610224578063c5e3c5651461024f578063d689c50b1461028c578063fcd1af01146102b5576100a7565b8063164e7393146100ac5780631b801591146100e957806338bf6922146101055780634fa756871461012e5780636db49cdf146101575780636f7a410314610180575b600080fd5b3480156100b857600080fd5b506100d360048036038101906100ce91906111d3565b6102f2565b6040516100e0919061121b565b60405180910390f35b61010360048036038101906100fe919061147a565b61034a565b005b34801561011157600080fd5b5061012c6004803603810190610127919061152d565b6105ec565b005b34801561013a57600080fd5b50610155600480360381019061015091906111d3565b610832565b005b34801561016357600080fd5b5061017e600480360381019061017991906115a3565b6109d7565b005b34801561018c57600080fd5b506101a760048036038101906101a291906115e3565b610b34565b005b3480156101b557600080fd5b506101d060048036038101906101cb91906111d3565b610be1565b6040516101de92919061161f565b60405180910390f35b3480156101f357600080fd5b5061020e600480360381019061020991906111d3565b610c32565b60405161021b919061121b565b60405180910390f35b34801561023057600080fd5b50610239610cd2565b6040516102469190611657565b60405180910390f35b34801561025b57600080fd5b50610276600480360381019061027191906111d3565b610cd8565b60405161028391906118c8565b60405180910390f35b34801561029857600080fd5b506102b360048036038101906102ae919061152d565b610e6c565b005b3480156102c157600080fd5b506102dc60048036038101906102d791906111d3565b6110bb565b6040516102e99190611657565b60405180910390f35b60008060008373ffffffffffffffffffffffffffffffffffffffff1673ffffffffffffffffffffffffffffffffffffffff16815260200190815260200160002060000160149054906101000a900460ff169050919050565b600073ffffffffffffffffffffffffffffffffffffffff168573ffffffffffffffffffffffffffffffffffffffff16141580156103c757506000600260008773ffffffffffffffffffffffffffffffffffffffff1673ffffffffffffffffffffffffffffffffffffffff1681526020019081526020016000205414155b806103d3575060035434145b610412576040517f08c379a00000000000000000000000000000000000000000000000000000000081526004016104099061196d565b60405180910390fd5b60008590508073ffffffffffffffffffffffffffffffffffffffff166323b872dd3330600260008b73ffffffffffffffffffffffffffffffffffffffff1673ffffffffffffffffffffffffffffffffffffffff168152602001908152602001600020546040518463ffffffff1660e01b81526004016104939392919061198d565b6020604051808303816000875af11580156104b2573d6000803e3d6000fd5b505050506040513d601f19601f820116820180604052508101906104d691906119f0565b610515576040517f08c379a000000000000000000000000000000000000000000000000000000000815260040161050c90611a69565b60405180910390fd5b61051d6110d3565b838160400181905250848160200181905250858160000181815250506000808473ffffffffffffffffffffffffffffffffffffffff1673ffffffffffffffffffffffffffffffffffffffff1681526020019081526020016000206001018190806001815401808255809150506001900390600052602060002090600302016000909190919091506000820151816000015560208201518160010190816105c39190611c95565b5060408201518160020190805190602001906105e09291906110f7565b50505050505050505050565b808073ffffffffffffffffffffffffffffffffffffffff16638da5cb5b6040518163ffffffff1660e01b8152600401602060405180830381865afa158015610638573d6000803e3d6000fd5b505050506040513d601f19601f8201168201806040525081019061065c9190611d7c565b73ffffffffffffffffffffffffffffffffffffffff163373ffffffffffffffffffffffffffffffffffffffff16146106c9576040517f08c379a00000000000000000000000000000000000000000000000000000000081526004016106c090611e1b565b60405180910390fd5b600160008473ffffffffffffffffffffffffffffffffffffffff1673ffffffffffffffffffffffffffffffffffffffff16815260200190815260200160002060009054906101000a900460ff1615610756576040517f08c379a000000000000000000000000000000000000000000000000000000000815260040161074d90611ead565b60405180910390fd5b826000808473ffffffffffffffffffffffffffffffffffffffff1673ffffffffffffffffffffffffffffffffffffffff16815260200190815260200160002060000160006101000a81548173ffffffffffffffffffffffffffffffffffffffff021916908373ffffffffffffffffffffffffffffffffffffffff16021790555060018060008573ffffffffffffffffffffffffffffffffffffffff1673ffffffffffffffffffffffffffffffffffffffff16815260200190815260200160002060006101000a81548160ff021916908315150217905550505050565b806000808273ffffffffffffffffffffffffffffffffffffffff1673ffffffffffffffffffffffffffffffffffffffff16815260200190815260200160002060000160149054906101000a900460ff16156108c2576040517f08c379a00000000000000000000000000000000000000000000000000000000081526004016108b990611f3f565b60405180910390fd5b60008173ffffffffffffffffffffffffffffffffffffffff166306fdde036040518163ffffffff1660e01b8152600401600060405180830381865afa15801561090f573d6000803e3d6000fd5b505050506040513d6000823e3d601f19601f820116820180604052508101906109389190611fcf565b5103610979576040517f08c379a000000000000000000000000000000000000000000000000000000000815260040161097090612064565b60405180910390fd5b60016000808473ffffffffffffffffffffffffffffffffffffffff1673ffffffffffffffffffffffffffffffffffffffff16815260200190815260200160002060000160146101000a81548160ff0219169083151502179055505050565b600460009054906101000a900473ffffffffffffffffffffffffffffffffffffffff1673ffffffffffffffffffffffffffffffffffffffff163373ffffffffffffffffffffffffffffffffffffffff1614610a67576040517f08c379a0000000000000000000000000000000000000000000000000000000008152600401610a5e906120f6565b60405180910390fd5b8173ffffffffffffffffffffffffffffffffffffffff1663313ce5676040518163ffffffff1660e01b8152600401602060405180830381865afa158015610ab2573d6000803e3d6000fd5b505050506040513d601f19601f82011682018060405250810190610ad6919061214f565b600a610ae291906122de565b81610aed9190612329565b600260008473ffffffffffffffffffffffffffffffffffffffff1673ffffffffffffffffffffffffffffffffffffffff168152602001908152602001600020819055505050565b600460009054906101000a900473ffffffffffffffffffffffffffffffffffffffff1673ffffffffffffffffffffffffffffffffffffffff163373ffffffffffffffffffffffffffffffffffffffff1614610bc4576040517f08c379a0000000000000000000000000000000000000000000000000000000008152600401610bbb906120f6565b60405180910390fd5b670de0b6b3a764000081610bd89190612329565b60038190555050565b60006020528060005260406000206000915090508060000160009054906101000a900473ffffffffffffffffffffffffffffffffffffffff16908060000160149054906101000a900460ff16905082565b600080600073ffffffffffffffffffffffffffffffffffffffff166000808573ffffffffffffffffffffffffffffffffffffffff1673ffffffffffffffffffffffffffffffffffffffff16815260200190815260200160002060000160009054906101000a900473ffffffffffffffffffffffffffffffffffffffff1673ffffffffffffffffffffffffffffffffffffffff161415905080915050919050565b60035481565b60606000808373ffffffffffffffffffffffffffffffffffffffff1673ffffffffffffffffffffffffffffffffffffffff168152602001908152602001600020600101805480602002602001604051908101604052809291908181526020016000905b82821015610e61578382906000526020600020906003020160405180606001604052908160008201548152602001600182018054610d7890611ab8565b80601f0160208091040260200160405190810160405280929190818152602001828054610da490611ab8565b8015610df15780601f10610dc657610100808354040283529160200191610df1565b820191906000526020600020905b815481529060010190602001808311610dd457829003601f168201915b5050505050815260200160028201805480602002602001604051908101604052809291908181526020018280548015610e4957602002820191906000526020600020905b815481526020019060010190808311610e35575b50505050508152505081526020019060010190610d3b565b505050509050919050565b808073ffffffffffffffffffffffffffffffffffffffff16638da5cb5b6040518163ffffffff1660e01b8152600401602060405180830381865afa158015610eb8573d6000803e3d6000fd5b505050506040513d601f19601f82011682018060405250810190610edc9190611d7c565b73ffffffffffffffffffffffffffffffffffffffff163373ffffffffffffffffffffffffffffffffffffffff1614610f49576040517f08c379a0000000000000000000000000000000000000000000000000000000008152600401610f4090611e1b565b60405180910390fd5b600160008473ffffffffffffffffffffffffffffffffffffffff1673ffffffffffffffffffffffffffffffffffffffff16815260200190815260200160002060009054906101000a900460ff1615610fd6576040517f08c379a0000000000000000000000000000000000000000000000000000000008152600401610fcd90611ead565b60405180910390fd5b60018060008573ffffffffffffffffffffffffffffffffffffffff1673ffffffffffffffffffffffffffffffffffffffff16815260200190815260200160002060006101000a81548160ff02191690831515021790555061103682610832565b826000808473ffffffffffffffffffffffffffffffffffffffff1673ffffffffffffffffffffffffffffffffffffffff16815260200190815260200160002060000160006101000a81548173ffffffffffffffffffffffffffffffffffffffff021916908373ffffffffffffffffffffffffffffffffffffffff160217905550505050565b60026020528060005260406000206000915090505481565b60405180606001604052806000801916815260200160608152602001606081525090565b828054828255906000526020600020908101928215611133579160200282015b82811115611132578251825591602001919060010190611117565b5b5090506111409190611144565b5090565b5b8082111561115d576000816000905550600101611145565b5090565b6000604051905090565b600080fd5b600080fd5b600073ffffffffffffffffffffffffffffffffffffffff82169050919050565b60006111a082611175565b9050919050565b6111b081611195565b81146111bb57600080fd5b50565b6000813590506111cd816111a7565b92915050565b6000602082840312156111e9576111e861116b565b5b60006111f7848285016111be565b91505092915050565b60008115159050919050565b61121581611200565b82525050565b6000602082019050611230600083018461120c565b92915050565b6000819050919050565b61124981611236565b811461125457600080fd5b50565b60008135905061126681611240565b92915050565b600080fd5b600080fd5b6000601f19601f8301169050919050565b7f4e487b7100000000000000000000000000000000000000000000000000000000600052604160045260246000fd5b6112bf82611276565b810181811067ffffffffffffffff821117156112de576112dd611287565b5b80604052505050565b60006112f1611161565b90506112fd82826112b6565b919050565b600067ffffffffffffffff82111561131d5761131c611287565b5b61132682611276565b9050602081019050919050565b82818337600083830152505050565b600061135561135084611302565b6112e7565b90508281526020810184848401111561137157611370611271565b5b61137c848285611333565b509392505050565b600082601f8301126113995761139861126c565b5b81356113a9848260208601611342565b91505092915050565b600067ffffffffffffffff8211156113cd576113cc611287565b5b602082029050602081019050919050565b600080fd5b60006113f66113f1846113b2565b6112e7565b90508083825260208201905060208402830185811115611419576114186113de565b5b835b81811015611442578061142e8882611257565b84526020840193505060208101905061141b565b5050509392505050565b600082601f8301126114615761146061126c565b5b81356114718482602086016113e3565b91505092915050565b600080600080600060a086880312156114965761149561116b565b5b60006114a4888289016111be565b95505060206114b588828901611257565b945050604086013567ffffffffffffffff8111156114d6576114d5611170565b5b6114e288828901611384565b935050606086013567ffffffffffffffff81111561150357611502611170565b5b61150f8882890161144c565b9250506080611520888289016111be565b9150509295509295909350565b600080604083850312156115445761154361116b565b5b6000611552858286016111be565b9250506020611563858286016111be565b9150509250929050565b6000819050919050565b6115808161156d565b811461158b57600080fd5b50565b60008135905061159d81611577565b92915050565b600080604083850312156115ba576115b961116b565b5b60006115c8858286016111be565b92505060206115d98582860161158e565b9150509250929050565b6000602082840312156115f9576115f861116b565b5b60006116078482850161158e565b91505092915050565b61161981611195565b82525050565b60006040820190506116346000830185611610565b611641602083018461120c565b9392505050565b6116518161156d565b82525050565b600060208201905061166c6000830184611648565b92915050565b600081519050919050565b600082825260208201905092915050565b6000819050602082019050919050565b6116a781611236565b82525050565b600081519050919050565b600082825260208201905092915050565b60005b838110156116e75780820151818401526020810190506116cc565b60008484015250505050565b60006116fe826116ad565b61170881856116b8565b93506117188185602086016116c9565b61172181611276565b840191505092915050565b600081519050919050565b600082825260208201905092915050565b6000819050602082019050919050565b6000611764838361169e565b60208301905092915050565b6000602082019050919050565b60006117888261172c565b6117928185611737565b935061179d83611748565b8060005b838110156117ce5781516117b58882611758565b97506117c083611770565b9250506001810190506117a1565b5085935050505092915050565b60006060830160008301516117f3600086018261169e565b506020830151848203602086015261180b82826116f3565b91505060408301518482036040860152611825828261177d565b9150508091505092915050565b600061183e83836117db565b905092915050565b6000602082019050919050565b600061185e82611672565b611868818561167d565b93508360208202850161187a8561168e565b8060005b858110156118b657848403895281516118978582611832565b94506118a283611846565b925060208a0199505060018101905061187e565b50829750879550505050505092915050565b600060208201905081810360008301526118e28184611853565b905092915050565b600082825260208201905092915050565b7f50726f766964652066656573206265666f7265206372656174696e6720706f6c60008201527f6c73000000000000000000000000000000000000000000000000000000000000602082015250565b60006119576022836118ea565b9150611962826118fb565b604082019050919050565b600060208201905081810360008301526119868161194a565b9050919050565b60006060820190506119a26000830186611610565b6119af6020830185611610565b6119bc6040830184611648565b949350505050565b6119cd81611200565b81146119d857600080fd5b50565b6000815190506119ea816119c4565b92915050565b600060208284031215611a0657611a0561116b565b5b6000611a14848285016119db565b91505092915050565b7f4572726f7220506179696e672066656573000000000000000000000000000000600082015250565b6000611a536011836118ea565b9150611a5e82611a1d565b602082019050919050565b60006020820190508181036000830152611a8281611a46565b9050919050565b7f4e487b7100000000000000000000000000000000000000000000000000000000600052602260045260246000fd5b60006002820490506001821680611ad057607f821691505b602082108103611ae357611ae2611a89565b5b50919050565b60008190508160005260206000209050919050565b60006020601f8301049050919050565b600082821b905092915050565b600060088302611b4b7fffffffffffffffffffffffffffffffffffffffffffffffffffffffffffffffff82611b0e565b611b558683611b0e565b95508019841693508086168417925050509392505050565b6000819050919050565b6000611b92611b8d611b888461156d565b611b6d565b61156d565b9050919050565b6000819050919050565b611bac83611b77565b611bc0611bb882611b99565b848454611b1b565b825550505050565b600090565b611bd5611bc8565b611be0818484611ba3565b505050565b5b81811015611c0457611bf9600082611bcd565b600181019050611be6565b5050565b601f821115611c4957611c1a81611ae9565b611c2384611afe565b81016020851015611c32578190505b611c46611c3e85611afe565b830182611be5565b50505b505050565b600082821c905092915050565b6000611c6c60001984600802611c4e565b1980831691505092915050565b6000611c858383611c5b565b9150826002028217905092915050565b611c9e826116ad565b67ffffffffffffffff811115611cb757611cb6611287565b5b611cc18254611ab8565b611ccc828285611c08565b600060209050601f831160018114611cff5760008415611ced578287015190505b611cf78582611c79565b865550611d5f565b601f198416611d0d86611ae9565b60005b82811015611d3557848901518255600182019150602085019450602081019050611d10565b86831015611d525784890151611d4e601f891682611c5b565b8355505b6001600288020188555050505b505050505050565b600081519050611d76816111a7565b92915050565b600060208284031215611d9257611d9161116b565b5b6000611da084828501611d67565b91505092915050565b7f636f6e7472616374206164647265737320646f6573206e6f742062656c6f6e6760008201527f20746f2074686973206164647265737300000000000000000000000000000000602082015250565b6000611e056030836118ea565b9150611e1082611da9565b604082019050919050565b60006020820190508181036000830152611e3481611df8565b9050919050565b7f5468697320616464726573732068617320616c7265616479206265656e206c6960008201527f6e6b656420746f20612070726f6a656374000000000000000000000000000000602082015250565b6000611e976031836118ea565b9150611ea282611e3b565b604082019050919050565b60006020820190508181036000830152611ec681611e8a565b9050919050565b7f546869732070726f6a6563742068617320616c7265616479206265656e206c6960008201527f7374656400000000000000000000000000000000000000000000000000000000602082015250565b6000611f296024836118ea565b9150611f3482611ecd565b604082019050919050565b60006020820190508181036000830152611f5881611f1c565b9050919050565b6000611f72611f6d84611302565b6112e7565b905082815260208101848484011115611f8e57611f8d611271565b5b611f998482856116c9565b509392505050565b600082601f830112611fb657611fb561126c565b5b8151611fc6848260208601611f5f565b91505092915050565b600060208284031215611fe557611fe461116b565b5b600082015167ffffffffffffffff81111561200357612002611170565b5b61200f84828501611fa1565b91505092915050565b7f436f6e747261637420646f6573206e6f7420686176652061206e616d65000000600082015250565b600061204e601d836118ea565b915061205982612018565b602082019050919050565b6000602082019050818103600083015261207d81612041565b9050919050565b7f796f7520617265206e6f74207065726d697474656420746f2063616c6c20746860008201527f69732066756e6374696f6e210000000000000000000000000000000000000000602082015250565b60006120e0602c836118ea565b91506120eb82612084565b604082019050919050565b6000602082019050818103600083015261210f816120d3565b9050919050565b600060ff82169050919050565b61212c81612116565b811461213757600080fd5b50565b60008151905061214981612123565b92915050565b6000602082840312156121655761216461116b565b5b60006121738482850161213a565b91505092915050565b7f4e487b7100000000000000000000000000000000000000000000000000000000600052601160045260246000fd5b60008160011c9050919050565b6000808291508390505b6001851115612202578086048111156121de576121dd61217c565b5b60018516156121ed5780820291505b80810290506121fb856121ab565b94506121c2565b94509492505050565b60008261221b57600190506122d7565b8161222957600090506122d7565b816001811461223f576002811461224957612278565b60019150506122d7565b60ff84111561225b5761225a61217c565b5b8360020a9150848211156122725761227161217c565b5b506122d7565b5060208310610133831016604e8410600b84101617156122ad5782820a9050838111156122a8576122a761217c565b5b6122d7565b6122ba84848460016121b8565b925090508184048111156122d1576122d061217c565b5b81810290505b9392505050565b60006122e98261156d565b91506122f483612116565b92506123217fffffffffffffffffffffffffffffffffffffffffffffffffffffffffffffffff848461220b565b905092915050565b60006123348261156d565b915061233f8361156d565b925082820261234d8161156d565b915082820484148315176123645761236361217c565b5b509291505056fea2646970667358221220bb674913dfe6036271317f7c2e100f7ed7bbaaad2d28655aaaa41e9fefa0c95a64736f6c63430008130033",
  "immutableReferences": {},
  "source": "// SPDX-License-Identifier: MIT\n\npragma solidity ^0.8;\n\nimport \"./Poll.sol\";\n\ncontract DecentraVote is Polls {\n    constructor() {\n        owner = msg.sender;\n    }\n\n    address owner;\n\n    function addTokenCharges(address _address, uint256 _charge) public {\n        require(\n            msg.sender == owner,\n            \"you are not permitted to call this function!\"\n        );\n        charges[_address] = _charge * 10 ** PaymentToken(_address).decimals();\n    }\n\n    function setBnbCharge(uint256 _charge) public {\n        require(\n            msg.sender == owner,\n            \"you are not permitted to call this function!\"\n        );\n        bnbCharge = _charge * 10 ** 18;\n    }\n}\n\ncontract Test {\n    constructor() {\n        owner = msg.sender;\n    }\n\n    string public name = \"radiance\";\n    address public owner;\n}\n",
  "sourcePath": "/Users/user/Documents/Projects/ddhub/decentravote-sc/contracts/Decentravote.sol",
  "compiler": {
    "name": "solc",
    "version": "0.8.19+commit.7dd6d404.Emscripten.clang"
  },
  "schemaVersion": "3.4.13",
  "updatedAt": "2023-04-25T22:52:33.757Z",
  "devdoc": {
    "kind": "dev",
    "methods": {},
    "version": 1
  },
  "userdoc": {
    "kind": "user",
    "methods": {},
    "version": 1
  }
}