{
  "contractName": "Polls",
  "abi": [
    {
      "inputs": [],
      "name": "bnbCharge",
      "outputs": [
        {
          "internalType": "uint256",
          "name": "",
          "type": "uint256"
        }
      ],
      "stateMutability": "view",
      "type": "function"
    },
    {
      "inputs": [
        {
          "internalType": "address",
          "name": "",
          "type": "address"
        }
      ],
      "name": "charges",
      "outputs": [
        {
          "internalType": "uint256",
          "name": "",
          "type": "uint256"
        }
      ],
      "stateMutability": "view",
      "type": "function"
    },
    {
      "inputs": [
        {
          "internalType": "address",
          "name": "_address",
          "type": "address"
        }
      ],
      "name": "checkProjectListing",
      "outputs": [
        {
          "internalType": "bool",
          "name": "",
          "type": "bool"
        }
      ],
      "stateMutability": "view",
      "type": "function"
    },
    {
      "inputs": [
        {
          "internalType": "address",
          "name": "_registeredAddress",
          "type": "address"
        },
        {
          "internalType": "address",
          "name": "_projectAddress",
          "type": "address"
        }
      ],
      "name": "claimProject",
      "outputs": [],
      "stateMutability": "nonpayable",
      "type": "function"
    },
    {
      "inputs": [
        {
          "internalType": "address",
          "name": "_address",
          "type": "address"
        }
      ],
      "name": "getProjectPolls",
      "outputs": [
        {
          "components": [
            {
              "internalType": "bytes32",
              "name": "title",
              "type": "bytes32"
            },
            {
              "internalType": "string",
              "name": "description",
              "type": "string"
            },
            {
              "internalType": "bytes32[]",
              "name": "options",
              "type": "bytes32[]"
            }
          ],
          "internalType": "struct DecentraVoteListing.Poll[]",
          "name": "",
          "type": "tuple[]"
        }
      ],
      "stateMutability": "view",
      "type": "function"
    },
    {
      "inputs": [
        {
          "internalType": "address",
          "name": "_address",
          "type": "address"
        }
      ],
      "name": "isClaimed",
      "outputs": [
        {
          "internalType": "bool",
          "name": "",
          "type": "bool"
        }
      ],
      "stateMutability": "view",
      "type": "function"
    },
    {
      "inputs": [
        {
          "internalType": "address",
          "name": "_registeredAddress",
          "type": "address"
        },
        {
          "internalType": "address",
          "name": "_projectAddress",
          "type": "address"
        }
      ],
      "name": "listAndVerifyProject",
      "outputs": [],
      "stateMutability": "nonpayable",
      "type": "function"
    },
    {
      "inputs": [
        {
          "internalType": "address",
          "name": "_projectAddress",
          "type": "address"
        }
      ],
      "name": "listProject",
      "outputs": [],
      "stateMutability": "nonpayable",
      "type": "function"
    },
    {
      "inputs": [
        {
          "internalType": "address",
          "name": "",
          "type": "address"
        }
      ],
      "name": "projects",
      "outputs": [
        {
          "internalType": "address",
          "name": "walletAddress",
          "type": "address"
        },
        {
          "internalType": "bool",
          "name": "listed",
          "type": "bool"
        }
      ],
      "stateMutability": "view",
      "type": "function"
    },
    {
      "inputs": [
        {
          "internalType": "address",
          "name": "_address",
          "type": "address"
        },
        {
          "internalType": "bytes32",
          "name": "_title",
          "type": "bytes32"
        },
        {
          "internalType": "string",
          "name": "_description",
          "type": "string"
        },
        {
          "internalType": "bytes32[]",
          "name": "_options",
          "type": "bytes32[]"
        },
        {
          "internalType": "address",
          "name": "_projectAddress",
          "type": "address"
        }
      ],
      "name": "createPoll",
      "outputs": [],
      "stateMutability": "payable",
      "type": "function"
    }
  ],
  "bytecode": "0x608060405234801561001057600080fd5b50611daf806100206000396000f3fe6080604052600436106100915760003560e01c80638cc08025116100595780638cc080251461017f5780639ab537cc146101bc578063c5e3c565146101e7578063d689c50b14610224578063fcd1af011461024d57610091565b8063164e7393146100965780631b801591146100d357806338bf6922146100ef5780634fa7568714610118578063840e78fd14610141575b600080fd5b3480156100a257600080fd5b506100bd60048036038101906100b89190610f61565b61028a565b6040516100ca9190610fa9565b60405180910390f35b6100ed60048036038101906100e89190611208565b6102e2565b005b3480156100fb57600080fd5b50610116600480360381019061011191906112bb565b610584565b005b34801561012457600080fd5b5061013f600480360381019061013a9190610f61565b6107ca565b005b34801561014d57600080fd5b5061016860048036038101906101639190610f61565b61096f565b60405161017692919061130a565b60405180910390f35b34801561018b57600080fd5b506101a660048036038101906101a19190610f61565b6109c0565b6040516101b39190610fa9565b60405180910390f35b3480156101c857600080fd5b506101d1610a60565b6040516101de919061134c565b60405180910390f35b3480156101f357600080fd5b5061020e60048036038101906102099190610f61565b610a66565b60405161021b91906115bd565b60405180910390f35b34801561023057600080fd5b5061024b600480360381019061024691906112bb565b610bfa565b005b34801561025957600080fd5b50610274600480360381019061026f9190610f61565b610e49565b604051610281919061134c565b60405180910390f35b60008060008373ffffffffffffffffffffffffffffffffffffffff1673ffffffffffffffffffffffffffffffffffffffff16815260200190815260200160002060000160149054906101000a900460ff169050919050565b600073ffffffffffffffffffffffffffffffffffffffff168573ffffffffffffffffffffffffffffffffffffffff161415801561035f57506000600260008773ffffffffffffffffffffffffffffffffffffffff1673ffffffffffffffffffffffffffffffffffffffff1681526020019081526020016000205414155b8061036b575060035434145b6103aa576040517f08c379a00000000000000000000000000000000000000000000000000000000081526004016103a190611662565b60405180910390fd5b60008590508073ffffffffffffffffffffffffffffffffffffffff166323b872dd3330600260008b73ffffffffffffffffffffffffffffffffffffffff1673ffffffffffffffffffffffffffffffffffffffff168152602001908152602001600020546040518463ffffffff1660e01b815260040161042b93929190611682565b6020604051808303816000875af115801561044a573d6000803e3d6000fd5b505050506040513d601f19601f8201168201806040525081019061046e91906116e5565b6104ad576040517f08c379a00000000000000000000000000000000000000000000000000000000081526004016104a49061175e565b60405180910390fd5b6104b5610e61565b838160400181905250848160200181905250858160000181815250506000808473ffffffffffffffffffffffffffffffffffffffff1673ffffffffffffffffffffffffffffffffffffffff16815260200190815260200160002060010181908060018154018082558091505060019003906000526020600020906003020160009091909190915060008201518160000155602082015181600101908161055b919061198a565b506040820151816002019080519060200190610578929190610e85565b50505050505050505050565b808073ffffffffffffffffffffffffffffffffffffffff16638da5cb5b6040518163ffffffff1660e01b8152600401602060405180830381865afa1580156105d0573d6000803e3d6000fd5b505050506040513d601f19601f820116820180604052508101906105f49190611a71565b73ffffffffffffffffffffffffffffffffffffffff163373ffffffffffffffffffffffffffffffffffffffff1614610661576040517f08c379a000000000000000000000000000000000000000000000000000000000815260040161065890611b10565b60405180910390fd5b600160008473ffffffffffffffffffffffffffffffffffffffff1673ffffffffffffffffffffffffffffffffffffffff16815260200190815260200160002060009054906101000a900460ff16156106ee576040517f08c379a00000000000000000000000000000000000000000000000000000000081526004016106e590611ba2565b60405180910390fd5b826000808473ffffffffffffffffffffffffffffffffffffffff1673ffffffffffffffffffffffffffffffffffffffff16815260200190815260200160002060000160006101000a81548173ffffffffffffffffffffffffffffffffffffffff021916908373ffffffffffffffffffffffffffffffffffffffff16021790555060018060008573ffffffffffffffffffffffffffffffffffffffff1673ffffffffffffffffffffffffffffffffffffffff16815260200190815260200160002060006101000a81548160ff021916908315150217905550505050565b806000808273ffffffffffffffffffffffffffffffffffffffff1673ffffffffffffffffffffffffffffffffffffffff16815260200190815260200160002060000160149054906101000a900460ff161561085a576040517f08c379a000000000000000000000000000000000000000000000000000000000815260040161085190611c34565b60405180910390fd5b60008173ffffffffffffffffffffffffffffffffffffffff166306fdde036040518163ffffffff1660e01b8152600401600060405180830381865afa1580156108a7573d6000803e3d6000fd5b505050506040513d6000823e3d601f19601f820116820180604052508101906108d09190611cc4565b5103610911576040517f08c379a000000000000000000000000000000000000000000000000000000000815260040161090890611d59565b60405180910390fd5b60016000808473ffffffffffffffffffffffffffffffffffffffff1673ffffffffffffffffffffffffffffffffffffffff16815260200190815260200160002060000160146101000a81548160ff0219169083151502179055505050565b60006020528060005260406000206000915090508060000160009054906101000a900473ffffffffffffffffffffffffffffffffffffffff16908060000160149054906101000a900460ff16905082565b600080600073ffffffffffffffffffffffffffffffffffffffff166000808573ffffffffffffffffffffffffffffffffffffffff1673ffffffffffffffffffffffffffffffffffffffff16815260200190815260200160002060000160009054906101000a900473ffffffffffffffffffffffffffffffffffffffff1673ffffffffffffffffffffffffffffffffffffffff161415905080915050919050565b60035481565b60606000808373ffffffffffffffffffffffffffffffffffffffff1673ffffffffffffffffffffffffffffffffffffffff168152602001908152602001600020600101805480602002602001604051908101604052809291908181526020016000905b82821015610bef578382906000526020600020906003020160405180606001604052908160008201548152602001600182018054610b06906117ad565b80601f0160208091040260200160405190810160405280929190818152602001828054610b32906117ad565b8015610b7f5780601f10610b5457610100808354040283529160200191610b7f565b820191906000526020600020905b815481529060010190602001808311610b6257829003601f168201915b5050505050815260200160028201805480602002602001604051908101604052809291908181526020018280548015610bd757602002820191906000526020600020905b815481526020019060010190808311610bc3575b50505050508152505081526020019060010190610ac9565b505050509050919050565b808073ffffffffffffffffffffffffffffffffffffffff16638da5cb5b6040518163ffffffff1660e01b8152600401602060405180830381865afa158015610c46573d6000803e3d6000fd5b505050506040513d601f19601f82011682018060405250810190610c6a9190611a71565b73ffffffffffffffffffffffffffffffffffffffff163373ffffffffffffffffffffffffffffffffffffffff1614610cd7576040517f08c379a0000000000000000000000000000000000000000000000000000000008152600401610cce90611b10565b60405180910390fd5b600160008473ffffffffffffffffffffffffffffffffffffffff1673ffffffffffffffffffffffffffffffffffffffff16815260200190815260200160002060009054906101000a900460ff1615610d64576040517f08c379a0000000000000000000000000000000000000000000000000000000008152600401610d5b90611ba2565b60405180910390fd5b60018060008573ffffffffffffffffffffffffffffffffffffffff1673ffffffffffffffffffffffffffffffffffffffff16815260200190815260200160002060006101000a81548160ff021916908315150217905550610dc4826107ca565b826000808473ffffffffffffffffffffffffffffffffffffffff1673ffffffffffffffffffffffffffffffffffffffff16815260200190815260200160002060000160006101000a81548173ffffffffffffffffffffffffffffffffffffffff021916908373ffffffffffffffffffffffffffffffffffffffff160217905550505050565b60026020528060005260406000206000915090505481565b60405180606001604052806000801916815260200160608152602001606081525090565b828054828255906000526020600020908101928215610ec1579160200282015b82811115610ec0578251825591602001919060010190610ea5565b5b509050610ece9190610ed2565b5090565b5b80821115610eeb576000816000905550600101610ed3565b5090565b6000604051905090565b600080fd5b600080fd5b600073ffffffffffffffffffffffffffffffffffffffff82169050919050565b6000610f2e82610f03565b9050919050565b610f3e81610f23565b8114610f4957600080fd5b50565b600081359050610f5b81610f35565b92915050565b600060208284031215610f7757610f76610ef9565b5b6000610f8584828501610f4c565b91505092915050565b60008115159050919050565b610fa381610f8e565b82525050565b6000602082019050610fbe6000830184610f9a565b92915050565b6000819050919050565b610fd781610fc4565b8114610fe257600080fd5b50565b600081359050610ff481610fce565b92915050565b600080fd5b600080fd5b6000601f19601f8301169050919050565b7f4e487b7100000000000000000000000000000000000000000000000000000000600052604160045260246000fd5b61104d82611004565b810181811067ffffffffffffffff8211171561106c5761106b611015565b5b80604052505050565b600061107f610eef565b905061108b8282611044565b919050565b600067ffffffffffffffff8211156110ab576110aa611015565b5b6110b482611004565b9050602081019050919050565b82818337600083830152505050565b60006110e36110de84611090565b611075565b9050828152602081018484840111156110ff576110fe610fff565b5b61110a8482856110c1565b509392505050565b600082601f83011261112757611126610ffa565b5b81356111378482602086016110d0565b91505092915050565b600067ffffffffffffffff82111561115b5761115a611015565b5b602082029050602081019050919050565b600080fd5b600061118461117f84611140565b611075565b905080838252602082019050602084028301858111156111a7576111a661116c565b5b835b818110156111d057806111bc8882610fe5565b8452602084019350506020810190506111a9565b5050509392505050565b600082601f8301126111ef576111ee610ffa565b5b81356111ff848260208601611171565b91505092915050565b600080600080600060a0868803121561122457611223610ef9565b5b600061123288828901610f4c565b955050602061124388828901610fe5565b945050604086013567ffffffffffffffff81111561126457611263610efe565b5b61127088828901611112565b935050606086013567ffffffffffffffff81111561129157611290610efe565b5b61129d888289016111da565b92505060806112ae88828901610f4c565b9150509295509295909350565b600080604083850312156112d2576112d1610ef9565b5b60006112e085828601610f4c565b92505060206112f185828601610f4c565b9150509250929050565b61130481610f23565b82525050565b600060408201905061131f60008301856112fb565b61132c6020830184610f9a565b9392505050565b6000819050919050565b61134681611333565b82525050565b6000602082019050611361600083018461133d565b92915050565b600081519050919050565b600082825260208201905092915050565b6000819050602082019050919050565b61139c81610fc4565b82525050565b600081519050919050565b600082825260208201905092915050565b60005b838110156113dc5780820151818401526020810190506113c1565b60008484015250505050565b60006113f3826113a2565b6113fd81856113ad565b935061140d8185602086016113be565b61141681611004565b840191505092915050565b600081519050919050565b600082825260208201905092915050565b6000819050602082019050919050565b60006114598383611393565b60208301905092915050565b6000602082019050919050565b600061147d82611421565b611487818561142c565b93506114928361143d565b8060005b838110156114c35781516114aa888261144d565b97506114b583611465565b925050600181019050611496565b5085935050505092915050565b60006060830160008301516114e86000860182611393565b506020830151848203602086015261150082826113e8565b9150506040830151848203604086015261151a8282611472565b9150508091505092915050565b600061153383836114d0565b905092915050565b6000602082019050919050565b600061155382611367565b61155d8185611372565b93508360208202850161156f85611383565b8060005b858110156115ab578484038952815161158c8582611527565b94506115978361153b565b925060208a01995050600181019050611573565b50829750879550505050505092915050565b600060208201905081810360008301526115d78184611548565b905092915050565b600082825260208201905092915050565b7f50726f766964652066656573206265666f7265206372656174696e6720706f6c60008201527f6c73000000000000000000000000000000000000000000000000000000000000602082015250565b600061164c6022836115df565b9150611657826115f0565b604082019050919050565b6000602082019050818103600083015261167b8161163f565b9050919050565b600060608201905061169760008301866112fb565b6116a460208301856112fb565b6116b1604083018461133d565b949350505050565b6116c281610f8e565b81146116cd57600080fd5b50565b6000815190506116df816116b9565b92915050565b6000602082840312156116fb576116fa610ef9565b5b6000611709848285016116d0565b91505092915050565b7f4572726f7220506179696e672066656573000000000000000000000000000000600082015250565b60006117486011836115df565b915061175382611712565b602082019050919050565b600060208201905081810360008301526117778161173b565b9050919050565b7f4e487b7100000000000000000000000000000000000000000000000000000000600052602260045260246000fd5b600060028204905060018216806117c557607f821691505b6020821081036117d8576117d761177e565b5b50919050565b60008190508160005260206000209050919050565b60006020601f8301049050919050565b600082821b905092915050565b6000600883026118407fffffffffffffffffffffffffffffffffffffffffffffffffffffffffffffffff82611803565b61184a8683611803565b95508019841693508086168417925050509392505050565b6000819050919050565b600061188761188261187d84611333565b611862565b611333565b9050919050565b6000819050919050565b6118a18361186c565b6118b56118ad8261188e565b848454611810565b825550505050565b600090565b6118ca6118bd565b6118d5818484611898565b505050565b5b818110156118f9576118ee6000826118c2565b6001810190506118db565b5050565b601f82111561193e5761190f816117de565b611918846117f3565b81016020851015611927578190505b61193b611933856117f3565b8301826118da565b50505b505050565b600082821c905092915050565b600061196160001984600802611943565b1980831691505092915050565b600061197a8383611950565b9150826002028217905092915050565b611993826113a2565b67ffffffffffffffff8111156119ac576119ab611015565b5b6119b682546117ad565b6119c18282856118fd565b600060209050601f8311600181146119f457600084156119e2578287015190505b6119ec858261196e565b865550611a54565b601f198416611a02866117de565b60005b82811015611a2a57848901518255600182019150602085019450602081019050611a05565b86831015611a475784890151611a43601f891682611950565b8355505b6001600288020188555050505b505050505050565b600081519050611a6b81610f35565b92915050565b600060208284031215611a8757611a86610ef9565b5b6000611a9584828501611a5c565b91505092915050565b7f636f6e7472616374206164647265737320646f6573206e6f742062656c6f6e6760008201527f20746f2074686973206164647265737300000000000000000000000000000000602082015250565b6000611afa6030836115df565b9150611b0582611a9e565b604082019050919050565b60006020820190508181036000830152611b2981611aed565b9050919050565b7f5468697320616464726573732068617320616c7265616479206265656e206c6960008201527f6e6b656420746f20612070726f6a656374000000000000000000000000000000602082015250565b6000611b8c6031836115df565b9150611b9782611b30565b604082019050919050565b60006020820190508181036000830152611bbb81611b7f565b9050919050565b7f546869732070726f6a6563742068617320616c7265616479206265656e206c6960008201527f7374656400000000000000000000000000000000000000000000000000000000602082015250565b6000611c1e6024836115df565b9150611c2982611bc2565b604082019050919050565b60006020820190508181036000830152611c4d81611c11565b9050919050565b6000611c67611c6284611090565b611075565b905082815260208101848484011115611c8357611c82610fff565b5b611c8e8482856113be565b509392505050565b600082601f830112611cab57611caa610ffa565b5b8151611cbb848260208601611c54565b91505092915050565b600060208284031215611cda57611cd9610ef9565b5b600082015167ffffffffffffffff811115611cf857611cf7610efe565b5b611d0484828501611c96565b91505092915050565b7f436f6e747261637420646f6573206e6f7420686176652061206e616d65000000600082015250565b6000611d43601d836115df565b9150611d4e82611d0d565b602082019050919050565b60006020820190508181036000830152611d7281611d36565b905091905056fea26469706673582212206335294f925566ae5cc0bb9c68ee97fe2b9e6f275416a9a06cf6f4ea03b817c064736f6c63430008130033",
  "immutableReferences": {},
  "source": "// SPDX-License-Identifier: MIT\n\npragma solidity ^0.8;\n\nimport \"./DecentraVoteListing.sol\";\n\nabstract contract PaymentToken {\n    function transferFrom(\n        address _from,\n        address _to,\n        uint256 _value\n    ) public virtual returns (bool success);\n\n    function decimals() public view virtual returns (uint8);\n}\n\ncontract Polls is DecentraVoteListing {\n    //create poll\n    mapping(address => uint256) public charges;\n    uint256 public bnbCharge;\n\n    function createPoll(\n        address _address,\n        bytes32 _title,\n        string memory _description,\n        bytes32[] memory _options,\n        address _projectAddress\n    ) public payable {\n        require(\n            (_address != address(0) && charges[_address] != 0) ||\n                msg.value == bnbCharge,\n            \"Provide fees before creating polls\"\n        );\n        PaymentToken token = PaymentToken(_address);\n        require(\n            token.transferFrom(msg.sender, address(this), charges[_address]),\n            \"Error Paying fees\"\n        );\n        //create poll\n        Poll memory newPoll;\n        newPoll.options = _options;\n        newPoll.description = _description;\n        newPoll.title = _title;\n\n        //save poll\n        projects[_projectAddress].polls.push(newPoll);\n    }\n}\n",
  "sourcePath": "/Users/user/Documents/Projects/ddhub/decentravote-sc/contracts/Poll.sol",
  "compiler": {
    "name": "solc",
    "version": "0.8.19+commit.7dd6d404.Emscripten.clang"
  },
  "schemaVersion": "3.4.13",
  "updatedAt": "2023-04-25T22:52:33.762Z",
  "devdoc": {
    "kind": "dev",
    "methods": {},
    "version": 1
  },
  "userdoc": {
    "kind": "user",
    "methods": {},
    "version": 1
  }
}