{
  "contractName": "Polls",
  "abi": [
    {
      "inputs": [
        {
          "internalType": "address",
          "name": "_address",
          "type": "address"
        }
      ],
      "name": "checkProjectListing",
      "outputs": [
        {
          "internalType": "bool",
          "name": "",
          "type": "bool"
        }
      ],
      "stateMutability": "view",
      "type": "function"
    },
    {
      "inputs": [
        {
          "internalType": "address",
          "name": "_registeredAddress",
          "type": "address"
        },
        {
          "internalType": "address",
          "name": "_projectAddress",
          "type": "address"
        }
      ],
      "name": "claimProject",
      "outputs": [],
      "stateMutability": "nonpayable",
      "type": "function"
    },
    {
      "inputs": [
        {
          "internalType": "address",
          "name": "_address",
          "type": "address"
        }
      ],
      "name": "getProjectPolls",
      "outputs": [
        {
          "components": [
            {
              "internalType": "bytes32",
              "name": "title",
              "type": "bytes32"
            },
            {
              "internalType": "string",
              "name": "description",
              "type": "string"
            },
            {
              "internalType": "bytes32[]",
              "name": "options",
              "type": "bytes32[]"
            }
          ],
          "internalType": "struct Storage.Poll[]",
          "name": "",
          "type": "tuple[]"
        }
      ],
      "stateMutability": "view",
      "type": "function"
    },
    {
      "inputs": [
        {
          "internalType": "address",
          "name": "_address",
          "type": "address"
        }
      ],
      "name": "isClaimed",
      "outputs": [
        {
          "internalType": "bool",
          "name": "",
          "type": "bool"
        }
      ],
      "stateMutability": "view",
      "type": "function"
    },
    {
      "inputs": [
        {
          "internalType": "address",
          "name": "_registeredAddress",
          "type": "address"
        },
        {
          "internalType": "address",
          "name": "_projectAddress",
          "type": "address"
        }
      ],
      "name": "listAndClaimProject",
      "outputs": [],
      "stateMutability": "nonpayable",
      "type": "function"
    },
    {
      "inputs": [
        {
          "internalType": "address",
          "name": "_projectAddress",
          "type": "address"
        }
      ],
      "name": "listProject",
      "outputs": [],
      "stateMutability": "nonpayable",
      "type": "function"
    },
    {
      "inputs": [
        {
          "internalType": "address",
          "name": "",
          "type": "address"
        }
      ],
      "name": "projects",
      "outputs": [
        {
          "internalType": "address",
          "name": "walletAddress",
          "type": "address"
        },
        {
          "internalType": "bool",
          "name": "listed",
          "type": "bool"
        }
      ],
      "stateMutability": "view",
      "type": "function"
    },
    {
      "inputs": [
        {
          "internalType": "address",
          "name": "",
          "type": "address"
        }
      ],
      "name": "rates",
      "outputs": [
        {
          "internalType": "uint256",
          "name": "",
          "type": "uint256"
        }
      ],
      "stateMutability": "view",
      "type": "function"
    },
    {
      "inputs": [],
      "name": "usdCharge",
      "outputs": [
        {
          "internalType": "uint256",
          "name": "",
          "type": "uint256"
        }
      ],
      "stateMutability": "view",
      "type": "function"
    },
    {
      "inputs": [
        {
          "internalType": "address",
          "name": "_address",
          "type": "address"
        },
        {
          "internalType": "bytes32",
          "name": "_title",
          "type": "bytes32"
        },
        {
          "internalType": "string",
          "name": "_description",
          "type": "string"
        },
        {
          "internalType": "bytes32[]",
          "name": "_options",
          "type": "bytes32[]"
        },
        {
          "internalType": "address",
          "name": "_projectAddress",
          "type": "address"
        }
      ],
      "name": "createPoll",
      "outputs": [],
      "stateMutability": "payable",
      "type": "function"
    }
  ],
  "bytecode": "0x6080604052600560045534801561001557600080fd5b50611e99806100256000396000f3fe6080604052600436106100915760003560e01c8063840e78fd11610059578063840e78fd1461016a5780638cc08025146101a8578063a8734f0b146101e5578063c5e3c56514610222578063d0ea2e481461025f57610091565b8063164e7393146100965780631b801591146100d357806330d4872d146100ef57806338bf6922146101185780634fa7568714610141575b600080fd5b3480156100a257600080fd5b506100bd60048036038101906100b89190610f7a565b61028a565b6040516100ca9190610fc2565b60405180910390f35b6100ed60048036038101906100e89190611221565b6102e2565b005b3480156100fb57600080fd5b50610116600480360381019061011191906112d4565b610532565b005b34801561012457600080fd5b5061013f600480360381019061013a91906112d4565b610781565b005b34801561014d57600080fd5b5061016860048036038101906101639190610f7a565b6109c7565b005b34801561017657600080fd5b50610191600480360381019061018c9190610f7a565b610b6c565b60405161019f929190611323565b60405180910390f35b3480156101b457600080fd5b506101cf60048036038101906101ca9190610f7a565b610bbd565b6040516101dc9190610fc2565b60405180910390f35b3480156101f157600080fd5b5061020c60048036038101906102079190610f7a565b610c5d565b6040516102199190611365565b60405180910390f35b34801561022e57600080fd5b5061024960048036038101906102449190610f7a565b610c75565b60405161025691906115d6565b60405180910390f35b34801561026b57600080fd5b50610274610e09565b6040516102819190611365565b60405180910390f35b60008060008373ffffffffffffffffffffffffffffffffffffffff1673ffffffffffffffffffffffffffffffffffffffff16815260200190815260200160002060000160149054906101000a900460ff169050919050565b8473ffffffffffffffffffffffffffffffffffffffff166323b872dd3330610348600360008b73ffffffffffffffffffffffffffffffffffffffff1673ffffffffffffffffffffffffffffffffffffffff16815260200190815260200160002054610e0f565b6040518463ffffffff1660e01b8152600401610366939291906115f8565b6020604051808303816000875af1158015610385573d6000803e3d6000fd5b505050506040513d601f19601f820116820180604052508101906103a9919061165b565b8061041d575061041960036000600560009054906101000a900473ffffffffffffffffffffffffffffffffffffffff1673ffffffffffffffffffffffffffffffffffffffff1673ffffffffffffffffffffffffffffffffffffffff16815260200190815260200160002054610e0f565b3410155b61045c576040517f08c379a00000000000000000000000000000000000000000000000000000000081526004016104539061170b565b60405180910390fd5b610464610e7a565b828160400181905250838160200181905250848160000181815250506000808373ffffffffffffffffffffffffffffffffffffffff1673ffffffffffffffffffffffffffffffffffffffff16815260200190815260200160002060010181908060018154018082558091505060019003906000526020600020906003020160009091909190915060008201518160000155602082015181600101908161050a9190611937565b506040820151816002019080519060200190610527929190610e9e565b505050505050505050565b808073ffffffffffffffffffffffffffffffffffffffff16638da5cb5b6040518163ffffffff1660e01b8152600401602060405180830381865afa15801561057e573d6000803e3d6000fd5b505050506040513d601f19601f820116820180604052508101906105a29190611a1e565b73ffffffffffffffffffffffffffffffffffffffff163373ffffffffffffffffffffffffffffffffffffffff161461060f576040517f08c379a000000000000000000000000000000000000000000000000000000000815260040161060690611abd565b60405180910390fd5b600160008473ffffffffffffffffffffffffffffffffffffffff1673ffffffffffffffffffffffffffffffffffffffff16815260200190815260200160002060009054906101000a900460ff161561069c576040517f08c379a000000000000000000000000000000000000000000000000000000000815260040161069390611b4f565b60405180910390fd5b60018060008573ffffffffffffffffffffffffffffffffffffffff1673ffffffffffffffffffffffffffffffffffffffff16815260200190815260200160002060006101000a81548160ff0219169083151502179055506106fc826109c7565b826000808473ffffffffffffffffffffffffffffffffffffffff1673ffffffffffffffffffffffffffffffffffffffff16815260200190815260200160002060000160006101000a81548173ffffffffffffffffffffffffffffffffffffffff021916908373ffffffffffffffffffffffffffffffffffffffff160217905550505050565b808073ffffffffffffffffffffffffffffffffffffffff16638da5cb5b6040518163ffffffff1660e01b8152600401602060405180830381865afa1580156107cd573d6000803e3d6000fd5b505050506040513d601f19601f820116820180604052508101906107f19190611a1e565b73ffffffffffffffffffffffffffffffffffffffff163373ffffffffffffffffffffffffffffffffffffffff161461085e576040517f08c379a000000000000000000000000000000000000000000000000000000000815260040161085590611abd565b60405180910390fd5b600160008473ffffffffffffffffffffffffffffffffffffffff1673ffffffffffffffffffffffffffffffffffffffff16815260200190815260200160002060009054906101000a900460ff16156108eb576040517f08c379a00000000000000000000000000000000000000000000000000000000081526004016108e290611b4f565b60405180910390fd5b826000808473ffffffffffffffffffffffffffffffffffffffff1673ffffffffffffffffffffffffffffffffffffffff16815260200190815260200160002060000160006101000a81548173ffffffffffffffffffffffffffffffffffffffff021916908373ffffffffffffffffffffffffffffffffffffffff16021790555060018060008573ffffffffffffffffffffffffffffffffffffffff1673ffffffffffffffffffffffffffffffffffffffff16815260200190815260200160002060006101000a81548160ff021916908315150217905550505050565b806000808273ffffffffffffffffffffffffffffffffffffffff1673ffffffffffffffffffffffffffffffffffffffff16815260200190815260200160002060000160149054906101000a900460ff1615610a57576040517f08c379a0000000000000000000000000000000000000000000000000000000008152600401610a4e90611be1565b60405180910390fd5b60008173ffffffffffffffffffffffffffffffffffffffff166306fdde036040518163ffffffff1660e01b8152600401600060405180830381865afa158015610aa4573d6000803e3d6000fd5b505050506040513d6000823e3d601f19601f82011682018060405250810190610acd9190611c71565b5103610b0e576040517f08c379a0000000000000000000000000000000000000000000000000000000008152600401610b0590611d06565b60405180910390fd5b60016000808473ffffffffffffffffffffffffffffffffffffffff1673ffffffffffffffffffffffffffffffffffffffff16815260200190815260200160002060000160146101000a81548160ff0219169083151502179055505050565b60006020528060005260406000206000915090508060000160009054906101000a900473ffffffffffffffffffffffffffffffffffffffff16908060000160149054906101000a900460ff16905082565b600080600073ffffffffffffffffffffffffffffffffffffffff166000808573ffffffffffffffffffffffffffffffffffffffff1673ffffffffffffffffffffffffffffffffffffffff16815260200190815260200160002060000160009054906101000a900473ffffffffffffffffffffffffffffffffffffffff1673ffffffffffffffffffffffffffffffffffffffff161415905080915050919050565b60036020528060005260406000206000915090505481565b60606000808373ffffffffffffffffffffffffffffffffffffffff1673ffffffffffffffffffffffffffffffffffffffff168152602001908152602001600020600101805480602002602001604051908101604052809291908181526020016000905b82821015610dfe578382906000526020600020906003020160405180606001604052908160008201548152602001600182018054610d159061175a565b80601f0160208091040260200160405190810160405280929190818152602001828054610d419061175a565b8015610d8e5780601f10610d6357610100808354040283529160200191610d8e565b820191906000526020600020905b815481529060010190602001808311610d7157829003601f168201915b5050505050815260200160028201805480602002602001604051908101604052809291908181526020018280548015610de657602002820191906000526020600020905b815481526020019060010190808311610dd2575b50505050508152505081526020019060010190610cd8565b505050509050919050565b60045481565b6000808211610e53576040517f08c379a0000000000000000000000000000000000000000000000000000000008152600401610e4a90611d72565b60405180910390fd5b6000600454836001610e659190611df0565b610e6f9190611e21565b905080915050919050565b60405180606001604052806000801916815260200160608152602001606081525090565b828054828255906000526020600020908101928215610eda579160200282015b82811115610ed9578251825591602001919060010190610ebe565b5b509050610ee79190610eeb565b5090565b5b80821115610f04576000816000905550600101610eec565b5090565b6000604051905090565b600080fd5b600080fd5b600073ffffffffffffffffffffffffffffffffffffffff82169050919050565b6000610f4782610f1c565b9050919050565b610f5781610f3c565b8114610f6257600080fd5b50565b600081359050610f7481610f4e565b92915050565b600060208284031215610f9057610f8f610f12565b5b6000610f9e84828501610f65565b91505092915050565b60008115159050919050565b610fbc81610fa7565b82525050565b6000602082019050610fd76000830184610fb3565b92915050565b6000819050919050565b610ff081610fdd565b8114610ffb57600080fd5b50565b60008135905061100d81610fe7565b92915050565b600080fd5b600080fd5b6000601f19601f8301169050919050565b7f4e487b7100000000000000000000000000000000000000000000000000000000600052604160045260246000fd5b6110668261101d565b810181811067ffffffffffffffff821117156110855761108461102e565b5b80604052505050565b6000611098610f08565b90506110a4828261105d565b919050565b600067ffffffffffffffff8211156110c4576110c361102e565b5b6110cd8261101d565b9050602081019050919050565b82818337600083830152505050565b60006110fc6110f7846110a9565b61108e565b90508281526020810184848401111561111857611117611018565b5b6111238482856110da565b509392505050565b600082601f8301126111405761113f611013565b5b81356111508482602086016110e9565b91505092915050565b600067ffffffffffffffff8211156111745761117361102e565b5b602082029050602081019050919050565b600080fd5b600061119d61119884611159565b61108e565b905080838252602082019050602084028301858111156111c0576111bf611185565b5b835b818110156111e957806111d58882610ffe565b8452602084019350506020810190506111c2565b5050509392505050565b600082601f83011261120857611207611013565b5b813561121884826020860161118a565b91505092915050565b600080600080600060a0868803121561123d5761123c610f12565b5b600061124b88828901610f65565b955050602061125c88828901610ffe565b945050604086013567ffffffffffffffff81111561127d5761127c610f17565b5b6112898882890161112b565b935050606086013567ffffffffffffffff8111156112aa576112a9610f17565b5b6112b6888289016111f3565b92505060806112c788828901610f65565b9150509295509295909350565b600080604083850312156112eb576112ea610f12565b5b60006112f985828601610f65565b925050602061130a85828601610f65565b9150509250929050565b61131d81610f3c565b82525050565b60006040820190506113386000830185611314565b6113456020830184610fb3565b9392505050565b6000819050919050565b61135f8161134c565b82525050565b600060208201905061137a6000830184611356565b92915050565b600081519050919050565b600082825260208201905092915050565b6000819050602082019050919050565b6113b581610fdd565b82525050565b600081519050919050565b600082825260208201905092915050565b60005b838110156113f55780820151818401526020810190506113da565b60008484015250505050565b600061140c826113bb565b61141681856113c6565b93506114268185602086016113d7565b61142f8161101d565b840191505092915050565b600081519050919050565b600082825260208201905092915050565b6000819050602082019050919050565b600061147283836113ac565b60208301905092915050565b6000602082019050919050565b60006114968261143a565b6114a08185611445565b93506114ab83611456565b8060005b838110156114dc5781516114c38882611466565b97506114ce8361147e565b9250506001810190506114af565b5085935050505092915050565b600060608301600083015161150160008601826113ac565b50602083015184820360208601526115198282611401565b91505060408301518482036040860152611533828261148b565b9150508091505092915050565b600061154c83836114e9565b905092915050565b6000602082019050919050565b600061156c82611380565b611576818561138b565b9350836020820285016115888561139c565b8060005b858110156115c457848403895281516115a58582611540565b94506115b083611554565b925060208a0199505060018101905061158c565b50829750879550505050505092915050565b600060208201905081810360008301526115f08184611561565b905092915050565b600060608201905061160d6000830186611314565b61161a6020830185611314565b6116276040830184611356565b949350505050565b61163881610fa7565b811461164357600080fd5b50565b6000815190506116558161162f565b92915050565b60006020828403121561167157611670610f12565b5b600061167f84828501611646565b91505092915050565b600082825260208201905092915050565b7f50726f766964652066656573206265666f7265206372656174696e6720706f6c60008201527f6c73000000000000000000000000000000000000000000000000000000000000602082015250565b60006116f5602283611688565b915061170082611699565b604082019050919050565b60006020820190508181036000830152611724816116e8565b9050919050565b7f4e487b7100000000000000000000000000000000000000000000000000000000600052602260045260246000fd5b6000600282049050600182168061177257607f821691505b6020821081036117855761178461172b565b5b50919050565b60008190508160005260206000209050919050565b60006020601f8301049050919050565b600082821b905092915050565b6000600883026117ed7fffffffffffffffffffffffffffffffffffffffffffffffffffffffffffffffff826117b0565b6117f786836117b0565b95508019841693508086168417925050509392505050565b6000819050919050565b600061183461182f61182a8461134c565b61180f565b61134c565b9050919050565b6000819050919050565b61184e83611819565b61186261185a8261183b565b8484546117bd565b825550505050565b600090565b61187761186a565b611882818484611845565b505050565b5b818110156118a65761189b60008261186f565b600181019050611888565b5050565b601f8211156118eb576118bc8161178b565b6118c5846117a0565b810160208510156118d4578190505b6118e86118e0856117a0565b830182611887565b50505b505050565b600082821c905092915050565b600061190e600019846008026118f0565b1980831691505092915050565b600061192783836118fd565b9150826002028217905092915050565b611940826113bb565b67ffffffffffffffff8111156119595761195861102e565b5b611963825461175a565b61196e8282856118aa565b600060209050601f8311600181146119a1576000841561198f578287015190505b611999858261191b565b865550611a01565b601f1984166119af8661178b565b60005b828110156119d7578489015182556001820191506020850194506020810190506119b2565b868310156119f457848901516119f0601f8916826118fd565b8355505b6001600288020188555050505b505050505050565b600081519050611a1881610f4e565b92915050565b600060208284031215611a3457611a33610f12565b5b6000611a4284828501611a09565b91505092915050565b7f636f6e7472616374206164647265737320646f6573206e6f742062656c6f6e6760008201527f20746f2074686973206164647265737300000000000000000000000000000000602082015250565b6000611aa7603083611688565b9150611ab282611a4b565b604082019050919050565b60006020820190508181036000830152611ad681611a9a565b9050919050565b7f5468697320616464726573732068617320616c7265616479206265656e206c6960008201527f6e6b656420746f20612070726f6a656374000000000000000000000000000000602082015250565b6000611b39603183611688565b9150611b4482611add565b604082019050919050565b60006020820190508181036000830152611b6881611b2c565b9050919050565b7f546869732070726f6a6563742068617320616c7265616479206265656e206c6960008201527f7374656400000000000000000000000000000000000000000000000000000000602082015250565b6000611bcb602483611688565b9150611bd682611b6f565b604082019050919050565b60006020820190508181036000830152611bfa81611bbe565b9050919050565b6000611c14611c0f846110a9565b61108e565b905082815260208101848484011115611c3057611c2f611018565b5b611c3b8482856113d7565b509392505050565b600082601f830112611c5857611c57611013565b5b8151611c68848260208601611c01565b91505092915050565b600060208284031215611c8757611c86610f12565b5b600082015167ffffffffffffffff811115611ca557611ca4610f17565b5b611cb184828501611c43565b91505092915050565b7f436f6e747261637420646f6573206e6f7420686176652061206e616d65000000600082015250565b6000611cf0601d83611688565b9150611cfb82611cba565b602082019050919050565b60006020820190508181036000830152611d1f81611ce3565b9050919050565b7f54686520726174652063616e6e6f74206265206c657373207468616e20300000600082015250565b6000611d5c601e83611688565b9150611d6782611d26565b602082019050919050565b60006020820190508181036000830152611d8b81611d4f565b9050919050565b7f4e487b7100000000000000000000000000000000000000000000000000000000600052601260045260246000fd5b7f4e487b7100000000000000000000000000000000000000000000000000000000600052601160045260246000fd5b6000611dfb8261134c565b9150611e068361134c565b925082611e1657611e15611d92565b5b828204905092915050565b6000611e2c8261134c565b9150611e378361134c565b9250828202611e458161134c565b91508282048414831517611e5c57611e5b611dc1565b5b509291505056fea2646970667358221220de2d9b3a22a5ced1e95b8eb5827614212e9eee39c34aab2acda87e23bfb820ac64736f6c63430008130033",
  "immutableReferences": {},
  "source": "// SPDX-License-Identifier: MIT\n\npragma solidity ^0.8;\n\nimport \"./DecentraVoteListing.sol\";\n\nabstract contract PaymentToken {\n    function transferFrom(\n        address _from,\n        address _to,\n        uint256 _value\n    ) public virtual returns (bool success);\n\n    function decimals() public view virtual returns (uint8);\n}\n\ncontract Polls is DecentraVoteListing {\n    //create poll\n\n    //generating token equivalent to dollar\n    function calculateTokenFee(\n        uint256 _tokenRate\n    ) private view returns (uint256) {\n        require(_tokenRate > 0, \"The rate cannot be less than 0\");\n        uint fee = (1 / _tokenRate) * usdCharge;\n        return fee;\n    }\n\n    // creating polls\n    function createPoll(\n        address _address,\n        bytes32 _title,\n        string memory _description,\n        bytes32[] memory _options,\n        address _projectAddress\n    ) public payable {\n        require(\n            PaymentToken(_address).transferFrom(\n                msg.sender,\n                address(this),\n                calculateTokenFee(rates[_address])\n            ) || msg.value >= calculateTokenFee(rates[wBnb]),\n            \"Provide fees before creating polls\"\n        );\n\n        //create poll if fees settled!\n        Poll memory newPoll;\n        newPoll.options = _options;\n        newPoll.description = _description;\n        newPoll.title = _title;\n\n        //save poll\n        projects[_projectAddress].polls.push(newPoll);\n    }\n}\n",
  "sourcePath": "/Users/user/Documents/Projects/ddhub/decentravote-sc/contracts/Poll.sol",
  "compiler": {
    "name": "solc",
    "version": "0.8.19+commit.7dd6d404.Emscripten.clang"
  },
  "schemaVersion": "3.4.13",
  "updatedAt": "2023-04-26T12:00:37.709Z",
  "devdoc": {
    "kind": "dev",
    "methods": {},
    "version": 1
  },
  "userdoc": {
    "kind": "user",
    "methods": {},
    "version": 1
  }
}