{
  "contractName": "Polls",
  "abi": [
    {
      "inputs": [
        {
          "internalType": "address",
          "name": "_address",
          "type": "address"
        }
      ],
      "name": "checkProjectListing",
      "outputs": [
        {
          "internalType": "bool",
          "name": "",
          "type": "bool"
        }
      ],
      "stateMutability": "view",
      "type": "function"
    },
    {
      "inputs": [
        {
          "internalType": "address",
          "name": "_registeredAddress",
          "type": "address"
        },
        {
          "internalType": "address",
          "name": "_projectAddress",
          "type": "address"
        }
      ],
      "name": "claimProject",
      "outputs": [],
      "stateMutability": "nonpayable",
      "type": "function"
    },
    {
      "inputs": [
        {
          "internalType": "address",
          "name": "_address",
          "type": "address"
        }
      ],
      "name": "getProjectPolls",
      "outputs": [
        {
          "components": [
            {
              "internalType": "bytes32",
              "name": "title",
              "type": "bytes32"
            },
            {
              "internalType": "string",
              "name": "description",
              "type": "string"
            },
            {
              "internalType": "bytes32[]",
              "name": "options",
              "type": "bytes32[]"
            }
          ],
          "internalType": "struct Storage.Poll[]",
          "name": "",
          "type": "tuple[]"
        }
      ],
      "stateMutability": "view",
      "type": "function"
    },
    {
      "inputs": [
        {
          "internalType": "address",
          "name": "_address",
          "type": "address"
        }
      ],
      "name": "isClaimed",
      "outputs": [
        {
          "internalType": "bool",
          "name": "",
          "type": "bool"
        }
      ],
      "stateMutability": "view",
      "type": "function"
    },
    {
      "inputs": [
        {
          "internalType": "address",
          "name": "_registeredAddress",
          "type": "address"
        },
        {
          "internalType": "address",
          "name": "_projectAddress",
          "type": "address"
        }
      ],
      "name": "listAndClaimProject",
      "outputs": [],
      "stateMutability": "nonpayable",
      "type": "function"
    },
    {
      "inputs": [
        {
          "internalType": "address",
          "name": "_projectAddress",
          "type": "address"
        }
      ],
      "name": "listProject",
      "outputs": [],
      "stateMutability": "nonpayable",
      "type": "function"
    },
    {
      "inputs": [
        {
          "internalType": "address",
          "name": "",
          "type": "address"
        }
      ],
      "name": "projects",
      "outputs": [
        {
          "internalType": "address",
          "name": "walletAddress",
          "type": "address"
        },
        {
          "internalType": "bool",
          "name": "listed",
          "type": "bool"
        }
      ],
      "stateMutability": "view",
      "type": "function"
    },
    {
      "inputs": [
        {
          "internalType": "address",
          "name": "",
          "type": "address"
        }
      ],
      "name": "rates",
      "outputs": [
        {
          "internalType": "uint256",
          "name": "",
          "type": "uint256"
        }
      ],
      "stateMutability": "view",
      "type": "function"
    },
    {
      "inputs": [],
      "name": "usdCharge",
      "outputs": [
        {
          "internalType": "uint256",
          "name": "",
          "type": "uint256"
        }
      ],
      "stateMutability": "view",
      "type": "function"
    },
    {
      "inputs": [
        {
          "internalType": "address",
          "name": "_address",
          "type": "address"
        },
        {
          "internalType": "bytes32",
          "name": "_title",
          "type": "bytes32"
        },
        {
          "internalType": "string",
          "name": "_description",
          "type": "string"
        },
        {
          "internalType": "bytes32[]",
          "name": "_options",
          "type": "bytes32[]"
        },
        {
          "internalType": "address",
          "name": "_projectAddress",
          "type": "address"
        }
      ],
      "name": "createPoll",
      "outputs": [],
      "stateMutability": "payable",
      "type": "function"
    }
  ],
  "bytecode": "0x608060405234801561001057600080fd5b50611ea0806100206000396000f3fe6080604052600436106100915760003560e01c8063840e78fd11610059578063840e78fd1461016a5780638cc08025146101a8578063a8734f0b146101e5578063c5e3c56514610222578063d0ea2e481461025f57610091565b8063164e7393146100965780631b801591146100d357806330d4872d146100ef57806338bf6922146101185780634fa7568714610141575b600080fd5b3480156100a257600080fd5b506100bd60048036038101906100b89190610f81565b61028a565b6040516100ca9190610fc9565b60405180910390f35b6100ed60048036038101906100e89190611228565b6102e2565b005b3480156100fb57600080fd5b50610116600480360381019061011191906112db565b610532565b005b34801561012457600080fd5b5061013f600480360381019061013a91906112db565b610781565b005b34801561014d57600080fd5b5061016860048036038101906101639190610f81565b6109c7565b005b34801561017657600080fd5b50610191600480360381019061018c9190610f81565b610b6c565b60405161019f92919061132a565b60405180910390f35b3480156101b457600080fd5b506101cf60048036038101906101ca9190610f81565b610bbd565b6040516101dc9190610fc9565b60405180910390f35b3480156101f157600080fd5b5061020c60048036038101906102079190610f81565b610c5d565b604051610219919061136c565b60405180910390f35b34801561022e57600080fd5b5061024960048036038101906102449190610f81565b610c75565b60405161025691906115dd565b60405180910390f35b34801561026b57600080fd5b50610274610e09565b604051610281919061136c565b60405180910390f35b60008060008373ffffffffffffffffffffffffffffffffffffffff1673ffffffffffffffffffffffffffffffffffffffff16815260200190815260200160002060000160149054906101000a900460ff169050919050565b8473ffffffffffffffffffffffffffffffffffffffff166323b872dd3330610348600360008b73ffffffffffffffffffffffffffffffffffffffff1673ffffffffffffffffffffffffffffffffffffffff16815260200190815260200160002054610e0f565b6040518463ffffffff1660e01b8152600401610366939291906115ff565b6020604051808303816000875af1158015610385573d6000803e3d6000fd5b505050506040513d601f19601f820116820180604052508101906103a99190611662565b8061041d575061041960036000600560009054906101000a900473ffffffffffffffffffffffffffffffffffffffff1673ffffffffffffffffffffffffffffffffffffffff1673ffffffffffffffffffffffffffffffffffffffff16815260200190815260200160002054610e0f565b3410155b61045c576040517f08c379a000000000000000000000000000000000000000000000000000000000815260040161045390611712565b60405180910390fd5b610464610e81565b828160400181905250838160200181905250848160000181815250506000808373ffffffffffffffffffffffffffffffffffffffff1673ffffffffffffffffffffffffffffffffffffffff16815260200190815260200160002060010181908060018154018082558091505060019003906000526020600020906003020160009091909190915060008201518160000155602082015181600101908161050a919061193e565b506040820151816002019080519060200190610527929190610ea5565b505050505050505050565b808073ffffffffffffffffffffffffffffffffffffffff16638da5cb5b6040518163ffffffff1660e01b8152600401602060405180830381865afa15801561057e573d6000803e3d6000fd5b505050506040513d601f19601f820116820180604052508101906105a29190611a25565b73ffffffffffffffffffffffffffffffffffffffff163373ffffffffffffffffffffffffffffffffffffffff161461060f576040517f08c379a000000000000000000000000000000000000000000000000000000000815260040161060690611ac4565b60405180910390fd5b600160008473ffffffffffffffffffffffffffffffffffffffff1673ffffffffffffffffffffffffffffffffffffffff16815260200190815260200160002060009054906101000a900460ff161561069c576040517f08c379a000000000000000000000000000000000000000000000000000000000815260040161069390611b56565b60405180910390fd5b60018060008573ffffffffffffffffffffffffffffffffffffffff1673ffffffffffffffffffffffffffffffffffffffff16815260200190815260200160002060006101000a81548160ff0219169083151502179055506106fc826109c7565b826000808473ffffffffffffffffffffffffffffffffffffffff1673ffffffffffffffffffffffffffffffffffffffff16815260200190815260200160002060000160006101000a81548173ffffffffffffffffffffffffffffffffffffffff021916908373ffffffffffffffffffffffffffffffffffffffff160217905550505050565b808073ffffffffffffffffffffffffffffffffffffffff16638da5cb5b6040518163ffffffff1660e01b8152600401602060405180830381865afa1580156107cd573d6000803e3d6000fd5b505050506040513d601f19601f820116820180604052508101906107f19190611a25565b73ffffffffffffffffffffffffffffffffffffffff163373ffffffffffffffffffffffffffffffffffffffff161461085e576040517f08c379a000000000000000000000000000000000000000000000000000000000815260040161085590611ac4565b60405180910390fd5b600160008473ffffffffffffffffffffffffffffffffffffffff1673ffffffffffffffffffffffffffffffffffffffff16815260200190815260200160002060009054906101000a900460ff16156108eb576040517f08c379a00000000000000000000000000000000000000000000000000000000081526004016108e290611b56565b60405180910390fd5b826000808473ffffffffffffffffffffffffffffffffffffffff1673ffffffffffffffffffffffffffffffffffffffff16815260200190815260200160002060000160006101000a81548173ffffffffffffffffffffffffffffffffffffffff021916908373ffffffffffffffffffffffffffffffffffffffff16021790555060018060008573ffffffffffffffffffffffffffffffffffffffff1673ffffffffffffffffffffffffffffffffffffffff16815260200190815260200160002060006101000a81548160ff021916908315150217905550505050565b806000808273ffffffffffffffffffffffffffffffffffffffff1673ffffffffffffffffffffffffffffffffffffffff16815260200190815260200160002060000160149054906101000a900460ff1615610a57576040517f08c379a0000000000000000000000000000000000000000000000000000000008152600401610a4e90611be8565b60405180910390fd5b60008173ffffffffffffffffffffffffffffffffffffffff166306fdde036040518163ffffffff1660e01b8152600401600060405180830381865afa158015610aa4573d6000803e3d6000fd5b505050506040513d6000823e3d601f19601f82011682018060405250810190610acd9190611c78565b5103610b0e576040517f08c379a0000000000000000000000000000000000000000000000000000000008152600401610b0590611d0d565b60405180910390fd5b60016000808473ffffffffffffffffffffffffffffffffffffffff1673ffffffffffffffffffffffffffffffffffffffff16815260200190815260200160002060000160146101000a81548160ff0219169083151502179055505050565b60006020528060005260406000206000915090508060000160009054906101000a900473ffffffffffffffffffffffffffffffffffffffff16908060000160149054906101000a900460ff16905082565b600080600073ffffffffffffffffffffffffffffffffffffffff166000808573ffffffffffffffffffffffffffffffffffffffff1673ffffffffffffffffffffffffffffffffffffffff16815260200190815260200160002060000160009054906101000a900473ffffffffffffffffffffffffffffffffffffffff1673ffffffffffffffffffffffffffffffffffffffff161415905080915050919050565b60036020528060005260406000206000915090505481565b60606000808373ffffffffffffffffffffffffffffffffffffffff1673ffffffffffffffffffffffffffffffffffffffff168152602001908152602001600020600101805480602002602001604051908101604052809291908181526020016000905b82821015610dfe578382906000526020600020906003020160405180606001604052908160008201548152602001600182018054610d1590611761565b80601f0160208091040260200160405190810160405280929190818152602001828054610d4190611761565b8015610d8e5780601f10610d6357610100808354040283529160200191610d8e565b820191906000526020600020905b815481529060010190602001808311610d7157829003601f168201915b5050505050815260200160028201805480602002602001604051908101604052809291908181526020018280548015610de657602002820191906000526020600020905b815481526020019060010190808311610dd2575b50505050508152505081526020019060010190610cd8565b505050509050919050565b60045481565b6000808211610e53576040517f08c379a0000000000000000000000000000000000000000000000000000000008152600401610e4a90611d79565b60405180910390fd5b600060045483670de0b6b3a7640000610e6c9190611df7565b610e769190611e28565b905080915050919050565b60405180606001604052806000801916815260200160608152602001606081525090565b828054828255906000526020600020908101928215610ee1579160200282015b82811115610ee0578251825591602001919060010190610ec5565b5b509050610eee9190610ef2565b5090565b5b80821115610f0b576000816000905550600101610ef3565b5090565b6000604051905090565b600080fd5b600080fd5b600073ffffffffffffffffffffffffffffffffffffffff82169050919050565b6000610f4e82610f23565b9050919050565b610f5e81610f43565b8114610f6957600080fd5b50565b600081359050610f7b81610f55565b92915050565b600060208284031215610f9757610f96610f19565b5b6000610fa584828501610f6c565b91505092915050565b60008115159050919050565b610fc381610fae565b82525050565b6000602082019050610fde6000830184610fba565b92915050565b6000819050919050565b610ff781610fe4565b811461100257600080fd5b50565b60008135905061101481610fee565b92915050565b600080fd5b600080fd5b6000601f19601f8301169050919050565b7f4e487b7100000000000000000000000000000000000000000000000000000000600052604160045260246000fd5b61106d82611024565b810181811067ffffffffffffffff8211171561108c5761108b611035565b5b80604052505050565b600061109f610f0f565b90506110ab8282611064565b919050565b600067ffffffffffffffff8211156110cb576110ca611035565b5b6110d482611024565b9050602081019050919050565b82818337600083830152505050565b60006111036110fe846110b0565b611095565b90508281526020810184848401111561111f5761111e61101f565b5b61112a8482856110e1565b509392505050565b600082601f8301126111475761114661101a565b5b81356111578482602086016110f0565b91505092915050565b600067ffffffffffffffff82111561117b5761117a611035565b5b602082029050602081019050919050565b600080fd5b60006111a461119f84611160565b611095565b905080838252602082019050602084028301858111156111c7576111c661118c565b5b835b818110156111f057806111dc8882611005565b8452602084019350506020810190506111c9565b5050509392505050565b600082601f83011261120f5761120e61101a565b5b813561121f848260208601611191565b91505092915050565b600080600080600060a0868803121561124457611243610f19565b5b600061125288828901610f6c565b955050602061126388828901611005565b945050604086013567ffffffffffffffff81111561128457611283610f1e565b5b61129088828901611132565b935050606086013567ffffffffffffffff8111156112b1576112b0610f1e565b5b6112bd888289016111fa565b92505060806112ce88828901610f6c565b9150509295509295909350565b600080604083850312156112f2576112f1610f19565b5b600061130085828601610f6c565b925050602061131185828601610f6c565b9150509250929050565b61132481610f43565b82525050565b600060408201905061133f600083018561131b565b61134c6020830184610fba565b9392505050565b6000819050919050565b61136681611353565b82525050565b6000602082019050611381600083018461135d565b92915050565b600081519050919050565b600082825260208201905092915050565b6000819050602082019050919050565b6113bc81610fe4565b82525050565b600081519050919050565b600082825260208201905092915050565b60005b838110156113fc5780820151818401526020810190506113e1565b60008484015250505050565b6000611413826113c2565b61141d81856113cd565b935061142d8185602086016113de565b61143681611024565b840191505092915050565b600081519050919050565b600082825260208201905092915050565b6000819050602082019050919050565b600061147983836113b3565b60208301905092915050565b6000602082019050919050565b600061149d82611441565b6114a7818561144c565b93506114b28361145d565b8060005b838110156114e35781516114ca888261146d565b97506114d583611485565b9250506001810190506114b6565b5085935050505092915050565b600060608301600083015161150860008601826113b3565b50602083015184820360208601526115208282611408565b9150506040830151848203604086015261153a8282611492565b9150508091505092915050565b600061155383836114f0565b905092915050565b6000602082019050919050565b600061157382611387565b61157d8185611392565b93508360208202850161158f856113a3565b8060005b858110156115cb57848403895281516115ac8582611547565b94506115b78361155b565b925060208a01995050600181019050611593565b50829750879550505050505092915050565b600060208201905081810360008301526115f78184611568565b905092915050565b6000606082019050611614600083018661131b565b611621602083018561131b565b61162e604083018461135d565b949350505050565b61163f81610fae565b811461164a57600080fd5b50565b60008151905061165c81611636565b92915050565b60006020828403121561167857611677610f19565b5b60006116868482850161164d565b91505092915050565b600082825260208201905092915050565b7f50726f766964652066656573206265666f7265206372656174696e6720706f6c60008201527f6c73000000000000000000000000000000000000000000000000000000000000602082015250565b60006116fc60228361168f565b9150611707826116a0565b604082019050919050565b6000602082019050818103600083015261172b816116ef565b9050919050565b7f4e487b7100000000000000000000000000000000000000000000000000000000600052602260045260246000fd5b6000600282049050600182168061177957607f821691505b60208210810361178c5761178b611732565b5b50919050565b60008190508160005260206000209050919050565b60006020601f8301049050919050565b600082821b905092915050565b6000600883026117f47fffffffffffffffffffffffffffffffffffffffffffffffffffffffffffffffff826117b7565b6117fe86836117b7565b95508019841693508086168417925050509392505050565b6000819050919050565b600061183b61183661183184611353565b611816565b611353565b9050919050565b6000819050919050565b61185583611820565b61186961186182611842565b8484546117c4565b825550505050565b600090565b61187e611871565b61188981848461184c565b505050565b5b818110156118ad576118a2600082611876565b60018101905061188f565b5050565b601f8211156118f2576118c381611792565b6118cc846117a7565b810160208510156118db578190505b6118ef6118e7856117a7565b83018261188e565b50505b505050565b600082821c905092915050565b6000611915600019846008026118f7565b1980831691505092915050565b600061192e8383611904565b9150826002028217905092915050565b611947826113c2565b67ffffffffffffffff8111156119605761195f611035565b5b61196a8254611761565b6119758282856118b1565b600060209050601f8311600181146119a85760008415611996578287015190505b6119a08582611922565b865550611a08565b601f1984166119b686611792565b60005b828110156119de578489015182556001820191506020850194506020810190506119b9565b868310156119fb57848901516119f7601f891682611904565b8355505b6001600288020188555050505b505050505050565b600081519050611a1f81610f55565b92915050565b600060208284031215611a3b57611a3a610f19565b5b6000611a4984828501611a10565b91505092915050565b7f636f6e7472616374206164647265737320646f6573206e6f742062656c6f6e6760008201527f20746f2074686973206164647265737300000000000000000000000000000000602082015250565b6000611aae60308361168f565b9150611ab982611a52565b604082019050919050565b60006020820190508181036000830152611add81611aa1565b9050919050565b7f5468697320616464726573732068617320616c7265616479206265656e206c6960008201527f6e6b656420746f20612070726f6a656374000000000000000000000000000000602082015250565b6000611b4060318361168f565b9150611b4b82611ae4565b604082019050919050565b60006020820190508181036000830152611b6f81611b33565b9050919050565b7f546869732070726f6a6563742068617320616c7265616479206265656e206c6960008201527f7374656400000000000000000000000000000000000000000000000000000000602082015250565b6000611bd260248361168f565b9150611bdd82611b76565b604082019050919050565b60006020820190508181036000830152611c0181611bc5565b9050919050565b6000611c1b611c16846110b0565b611095565b905082815260208101848484011115611c3757611c3661101f565b5b611c428482856113de565b509392505050565b600082601f830112611c5f57611c5e61101a565b5b8151611c6f848260208601611c08565b91505092915050565b600060208284031215611c8e57611c8d610f19565b5b600082015167ffffffffffffffff811115611cac57611cab610f1e565b5b611cb884828501611c4a565b91505092915050565b7f436f6e747261637420646f6573206e6f7420686176652061206e616d65000000600082015250565b6000611cf7601d8361168f565b9150611d0282611cc1565b602082019050919050565b60006020820190508181036000830152611d2681611cea565b9050919050565b7f54686520726174652063616e6e6f74206265206c657373207468616e20300000600082015250565b6000611d63601e8361168f565b9150611d6e82611d2d565b602082019050919050565b60006020820190508181036000830152611d9281611d56565b9050919050565b7f4e487b7100000000000000000000000000000000000000000000000000000000600052601260045260246000fd5b7f4e487b7100000000000000000000000000000000000000000000000000000000600052601160045260246000fd5b6000611e0282611353565b9150611e0d83611353565b925082611e1d57611e1c611d99565b5b828204905092915050565b6000611e3382611353565b9150611e3e83611353565b9250828202611e4c81611353565b91508282048414831517611e6357611e62611dc8565b5b509291505056fea26469706673582212207cf6365e6e88b8d6fa6bb8239175bdba2777c154e4796fcfc1ca019c4038de6b64736f6c63430008130033",
  "immutableReferences": {},
  "source": "// SPDX-License-Identifier: MIT\n\npragma solidity ^0.8;\n\nimport \"./DecentraVoteListing.sol\";\n\ncontract Polls is DecentraVoteListing {\n    //create poll\n\n    //generating token equivalent to dollar\n    function calculateTokenFee(\n        uint256 _tokenRate\n    ) private view returns (uint256) {\n        require(_tokenRate > 0, \"The rate cannot be less than 0\");\n        uint fee = ((1 * 10 ** 18) / _tokenRate) * usdCharge;\n        return fee;\n    }\n\n    // creating polls\n    function createPoll(\n        address _address,\n        bytes32 _title,\n        string memory _description,\n        bytes32[] memory _options,\n        address _projectAddress\n    ) public payable {\n        //attempts to collect some fees\n        require(\n            PaymentToken(_address).transferFrom(\n                msg.sender,\n                address(this),\n                calculateTokenFee(rates[_address])\n            ) || msg.value >= calculateTokenFee(rates[wBnb]),\n            \"Provide fees before creating polls\"\n        );\n\n        //create poll if fees settled!\n        Poll memory newPoll;\n        newPoll.options = _options;\n        newPoll.description = _description;\n        newPoll.title = _title;\n\n        //save poll\n        projects[_projectAddress].polls.push(newPoll);\n    }\n}\n",
  "sourcePath": "/Users/user/Documents/Projects/ddhub/decentravote-sc/contracts/Poll.sol",
  "compiler": {
    "name": "solc",
    "version": "0.8.19+commit.7dd6d404.Emscripten.clang"
  },
  "schemaVersion": "3.4.13",
  "updatedAt": "2023-04-26T19:49:38.132Z",
  "devdoc": {
    "kind": "dev",
    "methods": {},
    "version": 1
  },
  "userdoc": {
    "kind": "user",
    "methods": {},
    "version": 1
  }
}