{
  "contractName": "Storage",
  "abi": [
    {
      "inputs": [
        {
          "internalType": "address",
          "name": "",
          "type": "address"
        }
      ],
      "name": "projects",
      "outputs": [
        {
          "internalType": "address",
          "name": "walletAddress",
          "type": "address"
        },
        {
          "internalType": "bool",
          "name": "listed",
          "type": "bool"
        }
      ],
      "stateMutability": "view",
      "type": "function"
    },
    {
      "inputs": [
        {
          "internalType": "address",
          "name": "",
          "type": "address"
        }
      ],
      "name": "rates",
      "outputs": [
        {
          "internalType": "uint256",
          "name": "",
          "type": "uint256"
        }
      ],
      "stateMutability": "view",
      "type": "function"
    },
    {
      "inputs": [],
      "name": "usdCharge",
      "outputs": [
        {
          "internalType": "uint256",
          "name": "",
          "type": "uint256"
        }
      ],
      "stateMutability": "view",
      "type": "function"
    }
  ],
  "bytecode": "0x6080604052600560045534801561001557600080fd5b50610281806100256000396000f3fe608060405234801561001057600080fd5b50600436106100415760003560e01c8063840e78fd14610046578063a8734f0b14610077578063d0ea2e48146100a7575b600080fd5b610060600480360381019061005b9190610197565b6100c5565b60405161006e9291906101ee565b60405180910390f35b610091600480360381019061008c9190610197565b610116565b60405161009e9190610230565b60405180910390f35b6100af61012e565b6040516100bc9190610230565b60405180910390f35b60006020528060005260406000206000915090508060000160009054906101000a900473ffffffffffffffffffffffffffffffffffffffff16908060000160149054906101000a900460ff16905082565b60036020528060005260406000206000915090505481565b60045481565b600080fd5b600073ffffffffffffffffffffffffffffffffffffffff82169050919050565b600061016482610139565b9050919050565b61017481610159565b811461017f57600080fd5b50565b6000813590506101918161016b565b92915050565b6000602082840312156101ad576101ac610134565b5b60006101bb84828501610182565b91505092915050565b6101cd81610159565b82525050565b60008115159050919050565b6101e8816101d3565b82525050565b600060408201905061020360008301856101c4565b61021060208301846101df565b9392505050565b6000819050919050565b61022a81610217565b82525050565b60006020820190506102456000830184610221565b9291505056fea2646970667358221220c8f6529fb5fcf9bb71cf0ca7b3bcc9dab3e7b3d0d545b6c8758fd9e9ec825ea564736f6c63430008130033",
  "immutableReferences": {},
  "source": "// SPDX-License-Identifier: MIT\npragma solidity ^0.8;\n\ncontract Storage {\n    struct Poll {\n        bytes32 title;\n        string description;\n        bytes32[] options;\n    }\n\n    struct Projects {\n        address walletAddress;\n        bool listed;\n        Poll[] polls;\n    }\n\n    //entry point variable for projects\n    mapping(address => Projects) public projects;\n\n    mapping(address => bool) hasProject;\n\n    address owner;\n\n    mapping(address => uint256) public rates;\n    uint256 public usdCharge = 5;\n    address wBnb;\n}\n",
  "sourcePath": "/Users/user/Documents/Projects/ddhub/decentravote-sc/contracts/Storage.sol",
  "compiler": {
    "name": "solc",
    "version": "0.8.19+commit.7dd6d404.Emscripten.clang"
  },
  "schemaVersion": "3.4.13",
  "updatedAt": "2023-04-26T12:00:37.713Z",
  "devdoc": {
    "kind": "dev",
    "methods": {},
    "version": 1
  },
  "userdoc": {
    "kind": "user",
    "methods": {},
    "version": 1
  }
}