{
  "contractName": "Test",
  "abi": [
    {
      "inputs": [],
      "stateMutability": "nonpayable",
      "type": "constructor"
    },
    {
      "inputs": [],
      "name": "name",
      "outputs": [
        {
          "internalType": "string",
          "name": "",
          "type": "string"
        }
      ],
      "stateMutability": "view",
      "type": "function"
    },
    {
      "inputs": [],
      "name": "owner",
      "outputs": [
        {
          "internalType": "address",
          "name": "",
          "type": "address"
        }
      ],
      "stateMutability": "view",
      "type": "function"
    }
  ],
  "bytecode": "0x60806040526040518060400160405280600881526020017f72616469616e63650000000000000000000000000000000000000000000000008152506000908161004891906102ec565b5034801561005557600080fd5b5033600160006101000a81548173ffffffffffffffffffffffffffffffffffffffff021916908373ffffffffffffffffffffffffffffffffffffffff1602179055506103be565b600081519050919050565b7f4e487b7100000000000000000000000000000000000000000000000000000000600052604160045260246000fd5b7f4e487b7100000000000000000000000000000000000000000000000000000000600052602260045260246000fd5b6000600282049050600182168061011d57607f821691505b6020821081036101305761012f6100d6565b5b50919050565b60008190508160005260206000209050919050565b60006020601f8301049050919050565b600082821b905092915050565b6000600883026101987fffffffffffffffffffffffffffffffffffffffffffffffffffffffffffffffff8261015b565b6101a2868361015b565b95508019841693508086168417925050509392505050565b6000819050919050565b6000819050919050565b60006101e96101e46101df846101ba565b6101c4565b6101ba565b9050919050565b6000819050919050565b610203836101ce565b61021761020f826101f0565b848454610168565b825550505050565b600090565b61022c61021f565b6102378184846101fa565b505050565b5b8181101561025b57610250600082610224565b60018101905061023d565b5050565b601f8211156102a05761027181610136565b61027a8461014b565b81016020851015610289578190505b61029d6102958561014b565b83018261023c565b50505b505050565b600082821c905092915050565b60006102c3600019846008026102a5565b1980831691505092915050565b60006102dc83836102b2565b9150826002028217905092915050565b6102f58261009c565b67ffffffffffffffff81111561030e5761030d6100a7565b5b6103188254610105565b61032382828561025f565b600060209050601f8311600181146103565760008415610344578287015190505b61034e85826102d0565b8655506103b6565b601f19841661036486610136565b60005b8281101561038c57848901518255600182019150602085019450602081019050610367565b868310156103a957848901516103a5601f8916826102b2565b8355505b6001600288020188555050505b505050505050565b6102cf806103cd6000396000f3fe608060405234801561001057600080fd5b50600436106100365760003560e01c806306fdde031461003b5780638da5cb5b14610059575b600080fd5b610043610077565b60405161005091906101bb565b60405180910390f35b610061610105565b60405161006e919061021e565b60405180910390f35b6000805461008490610268565b80601f01602080910402602001604051908101604052809291908181526020018280546100b090610268565b80156100fd5780601f106100d2576101008083540402835291602001916100fd565b820191906000526020600020905b8154815290600101906020018083116100e057829003601f168201915b505050505081565b600160009054906101000a900473ffffffffffffffffffffffffffffffffffffffff1681565b600081519050919050565b600082825260208201905092915050565b60005b8381101561016557808201518184015260208101905061014a565b60008484015250505050565b6000601f19601f8301169050919050565b600061018d8261012b565b6101978185610136565b93506101a7818560208601610147565b6101b081610171565b840191505092915050565b600060208201905081810360008301526101d58184610182565b905092915050565b600073ffffffffffffffffffffffffffffffffffffffff82169050919050565b6000610208826101dd565b9050919050565b610218816101fd565b82525050565b6000602082019050610233600083018461020f565b92915050565b7f4e487b7100000000000000000000000000000000000000000000000000000000600052602260045260246000fd5b6000600282049050600182168061028057607f821691505b60208210810361029357610292610239565b5b5091905056fea2646970667358221220dbd059a2492ed693a1d8b4a5033a9c7bbdefbd78d0647e14d1b5ae4af276fffc64736f6c63430008130033",
  "immutableReferences": {},
  "source": "// SPDX-License-Identifier: MIT\n\npragma solidity ^0.8;\n\nimport \"./Poll.sol\";\n\ncontract DecentraVote is Polls {\n    constructor() {\n        owner = msg.sender;\n    }\n\n    address owner;\n\n    function addTokenCharges(address _address, uint256 _charge) public {\n        require(\n            msg.sender == owner,\n            \"you are not permitted to call this function!\"\n        );\n        charges[_address] = _charge * 10 ** PaymentToken(_address).decimals();\n    }\n\n    function setBnbCharge(uint256 _charge) public {\n        require(\n            msg.sender == owner,\n            \"you are not permitted to call this function!\"\n        );\n        bnbCharge = _charge * 10 ** 18;\n    }\n}\n\ncontract Test {\n    constructor() {\n        owner = msg.sender;\n    }\n\n    string public name = \"radiance\";\n    address public owner;\n}\n",
  "sourcePath": "/Users/user/Documents/Projects/ddhub/decentravote-sc/contracts/Decentravote.sol",
  "compiler": {
    "name": "solc",
    "version": "0.8.19+commit.7dd6d404.Emscripten.clang"
  },
  "schemaVersion": "3.4.13",
  "updatedAt": "2023-04-25T22:52:33.761Z",
  "devdoc": {
    "kind": "dev",
    "methods": {},
    "version": 1
  },
  "userdoc": {
    "kind": "user",
    "methods": {},
    "version": 1
  }
}